{
  "_format": "hh-sol-artifact-1",
  "contractName": "HealthControl",
  "sourceName": "contracts/HealthControl.sol",
  "abi": [
    {
      "inputs": [
        {
          "internalType": "address",
          "name": "admin",
          "type": "address"
        }
      ],
      "stateMutability": "nonpayable",
      "type": "constructor"
    },
    {
      "anonymous": false,
      "inputs": [
        {
          "indexed": true,
          "internalType": "address",
          "name": "doctor",
          "type": "address"
        },
        {
          "indexed": false,
          "internalType": "string",
          "name": "message",
          "type": "string"
        }
      ],
      "name": "DoctorAdded",
      "type": "event"
    },
    {
      "anonymous": false,
      "inputs": [
        {
          "indexed": true,
          "internalType": "bytes32",
          "name": "role",
          "type": "bytes32"
        },
        {
          "indexed": true,
          "internalType": "bytes32",
          "name": "previousAdminRole",
          "type": "bytes32"
        },
        {
          "indexed": true,
          "internalType": "bytes32",
          "name": "newAdminRole",
          "type": "bytes32"
        }
      ],
      "name": "RoleAdminChanged",
      "type": "event"
    },
    {
      "anonymous": false,
      "inputs": [
        {
          "indexed": true,
          "internalType": "bytes32",
          "name": "role",
          "type": "bytes32"
        },
        {
          "indexed": true,
          "internalType": "address",
          "name": "account",
          "type": "address"
        },
        {
          "indexed": true,
          "internalType": "address",
          "name": "sender",
          "type": "address"
        }
      ],
      "name": "RoleGranted",
      "type": "event"
    },
    {
      "anonymous": false,
      "inputs": [
        {
          "indexed": true,
          "internalType": "bytes32",
          "name": "role",
          "type": "bytes32"
        },
        {
          "indexed": true,
          "internalType": "address",
          "name": "account",
          "type": "address"
        },
        {
          "indexed": true,
          "internalType": "address",
          "name": "sender",
          "type": "address"
        }
      ],
      "name": "RoleRevoked",
      "type": "event"
    },
    {
      "anonymous": false,
      "inputs": [
        {
          "indexed": true,
          "internalType": "address",
          "name": "user",
          "type": "address"
        },
        {
          "indexed": false,
          "internalType": "string",
          "name": "message",
          "type": "string"
        }
      ],
      "name": "UserAdded",
      "type": "event"
    },
    {
      "inputs": [],
      "name": "DEFAULT_ADMIN_ROLE",
      "outputs": [
        {
          "internalType": "bytes32",
          "name": "",
          "type": "bytes32"
        }
      ],
      "stateMutability": "view",
      "type": "function"
    },
    {
      "inputs": [],
      "name": "ROLE_ADMIN",
      "outputs": [
        {
          "internalType": "bytes32",
          "name": "",
          "type": "bytes32"
        }
      ],
      "stateMutability": "view",
      "type": "function"
    },
    {
      "inputs": [],
      "name": "ROLE_DOCTOR",
      "outputs": [
        {
          "internalType": "bytes32",
          "name": "",
          "type": "bytes32"
        }
      ],
      "stateMutability": "view",
      "type": "function"
    },
    {
      "inputs": [],
      "name": "ROLE_USER",
      "outputs": [
        {
          "internalType": "bytes32",
          "name": "",
          "type": "bytes32"
        }
      ],
      "stateMutability": "view",
      "type": "function"
    },
    {
      "inputs": [
        {
          "internalType": "address",
          "name": "_newDoctor",
          "type": "address"
        },
        {
          "internalType": "bytes32",
          "name": "_doctorCidProfile",
          "type": "bytes32"
        }
      ],
      "name": "addDoctor",
      "outputs": [],
      "stateMutability": "nonpayable",
      "type": "function"
    },
    {
      "inputs": [
        {
          "internalType": "address",
          "name": "_newUser",
          "type": "address"
        },
        {
          "internalType": "bytes32",
          "name": "_userCidProfile",
          "type": "bytes32"
        }
      ],
      "name": "addUser",
      "outputs": [],
      "stateMutability": "nonpayable",
      "type": "function"
    },
    {
      "inputs": [
        {
          "internalType": "bytes32",
          "name": "role",
          "type": "bytes32"
        }
      ],
      "name": "getRoleAdmin",
      "outputs": [
        {
          "internalType": "bytes32",
          "name": "",
          "type": "bytes32"
        }
      ],
      "stateMutability": "view",
      "type": "function"
    },
    {
      "inputs": [
        {
          "internalType": "bytes32",
          "name": "role",
          "type": "bytes32"
        },
        {
          "internalType": "address",
          "name": "account",
          "type": "address"
        }
      ],
      "name": "grantRole",
      "outputs": [],
      "stateMutability": "nonpayable",
      "type": "function"
    },
    {
      "inputs": [
        {
          "internalType": "bytes32",
          "name": "role",
          "type": "bytes32"
        },
        {
          "internalType": "address",
          "name": "account",
          "type": "address"
        }
      ],
      "name": "hasRole",
      "outputs": [
        {
          "internalType": "bool",
          "name": "",
          "type": "bool"
        }
      ],
      "stateMutability": "view",
      "type": "function"
    },
    {
      "inputs": [
        {
          "internalType": "bytes32",
          "name": "role",
          "type": "bytes32"
        },
        {
          "internalType": "address",
          "name": "account",
          "type": "address"
        }
      ],
      "name": "renounceRole",
      "outputs": [],
      "stateMutability": "nonpayable",
      "type": "function"
    },
    {
      "inputs": [
        {
          "internalType": "bytes32",
          "name": "role",
          "type": "bytes32"
        },
        {
          "internalType": "address",
          "name": "account",
          "type": "address"
        }
      ],
      "name": "revokeRole",
      "outputs": [],
      "stateMutability": "nonpayable",
      "type": "function"
    },
    {
      "inputs": [
        {
          "internalType": "bytes4",
          "name": "interfaceId",
          "type": "bytes4"
        }
      ],
      "name": "supportsInterface",
      "outputs": [
        {
          "internalType": "bool",
          "name": "",
          "type": "bool"
        }
      ],
      "stateMutability": "view",
      "type": "function"
    }
  ],
  "bytecode": "0x60806040523480156200001157600080fd5b506040516200169038038062001690833981810160405281019062000037919062000326565b620000697f2172861495e7b85edac73e3cd5fbb42dd675baadf627720e687bcfdaca025096826200011460201b60201c565b620000bb7ffcc2475dd4c7105badaeda1c2b2d4b214c460b3a13fbc17d7998c4a3be0069667f2172861495e7b85edac73e3cd5fbb42dd675baadf627720e687bcfdaca0250966200012a60201b60201c565b6200010d7fb8ca5430e403d88aa14f3587e1aa5a2121b1acebf2201dde30800337ea6af0757f2172861495e7b85edac73e3cd5fbb42dd675baadf627720e687bcfdaca0250966200012a60201b60201c565b50620003a0565b6200012682826200018d60201b60201c565b5050565b60006200013d836200027e60201b60201c565b905081600080858152602001908152602001600020600101819055508181847fbd79b86ffe0ab8e8776151514217cd7cacd52c909f66475c3af44e129f0b00ff60405160405180910390a4505050565b6200019f82826200029d60201b60201c565b6200027a57600160008084815260200190815260200160002060000160008373ffffffffffffffffffffffffffffffffffffffff1673ffffffffffffffffffffffffffffffffffffffff16815260200190815260200160002060006101000a81548160ff0219169083151502179055506200021f6200030760201b60201c565b73ffffffffffffffffffffffffffffffffffffffff168173ffffffffffffffffffffffffffffffffffffffff16837f2f8788117e7eff1d82e926ec794901d17c78024a50270940304540a733656f0d60405160405180910390a45b5050565b6000806000838152602001908152602001600020600101549050919050565b600080600084815260200190815260200160002060000160008373ffffffffffffffffffffffffffffffffffffffff1673ffffffffffffffffffffffffffffffffffffffff16815260200190815260200160002060009054906101000a900460ff16905092915050565b600033905090565b600081519050620003208162000386565b92915050565b6000602082840312156200033957600080fd5b600062000349848285016200030f565b91505092915050565b60006200035f8262000366565b9050919050565b600073ffffffffffffffffffffffffffffffffffffffff82169050919050565b620003918162000352565b81146200039d57600080fd5b50565b6112e080620003b06000396000f3fe608060405234801561001057600080fd5b50600436106100b45760003560e01c806391d148541161007157806391d1485414610189578063a217fddf146101b9578063b941719e146101d7578063d391014b146101f5578063d547741f14610213578063ffcb79721461022f576100b4565b806301ffc9a7146100b957806306674d70146100e9578063248a9ca3146101055780632f2ff15d1461013557806336568abe1461015157806364f42a991461016d575b600080fd5b6100d360048036038101906100ce9190610cc2565b61024d565b6040516100e09190610e7f565b60405180910390f35b61010360048036038101906100fe9190610c21565b6102c7565b005b61011f600480360381019061011a9190610c5d565b610385565b60405161012c9190610e9a565b60405180910390f35b61014f600480360381019061014a9190610c86565b6103a4565b005b61016b60048036038101906101669190610c86565b6103c5565b005b61018760048036038101906101829190610c21565b610448565b005b6101a3600480360381019061019e9190610c86565b610506565b6040516101b09190610e7f565b60405180910390f35b6101c1610570565b6040516101ce9190610e9a565b60405180910390f35b6101df610577565b6040516101ec9190610e9a565b60405180910390f35b6101fd61059b565b60405161020a9190610e9a565b60405180910390f35b61022d60048036038101906102289190610c86565b6105bf565b005b6102376105e0565b6040516102449190610e9a565b60405180910390f35b60007f7965db0b000000000000000000000000000000000000000000000000000000007bffffffffffffffffffffffffffffffffffffffffffffffffffffffff1916827bffffffffffffffffffffffffffffffffffffffffffffffffffffffff191614806102c057506102bf82610604565b5b9050919050565b6102f17ffcc2475dd4c7105badaeda1c2b2d4b214c460b3a13fbc17d7998c4a3be006966836103a4565b80600160008473ffffffffffffffffffffffffffffffffffffffff1673ffffffffffffffffffffffffffffffffffffffff168152602001908152602001600020819055508173ffffffffffffffffffffffffffffffffffffffff167f0ee331c9cfbbc9903648d754b8c881413fa4e0b00b6de7074f9bb7ec3aad42ef60405161037990610f17565b60405180910390a25050565b6000806000838152602001908152602001600020600101549050919050565b6103ad82610385565b6103b68161066e565b6103c08383610682565b505050565b6103cd610762565b73ffffffffffffffffffffffffffffffffffffffff168173ffffffffffffffffffffffffffffffffffffffff161461043a576040517f08c379a000000000000000000000000000000000000000000000000000000000815260040161043190610f37565b60405180910390fd5b610444828261076a565b5050565b6104727fb8ca5430e403d88aa14f3587e1aa5a2121b1acebf2201dde30800337ea6af075836103a4565b80600260008473ffffffffffffffffffffffffffffffffffffffff1673ffffffffffffffffffffffffffffffffffffffff168152602001908152602001600020819055508173ffffffffffffffffffffffffffffffffffffffff167fa56e21173460286ea98fc3defc7671b9b8e2ff0c6acea8d6ed30b343724e23fa6040516104fa90610ef7565b60405180910390a25050565b600080600084815260200190815260200160002060000160008373ffffffffffffffffffffffffffffffffffffffff1673ffffffffffffffffffffffffffffffffffffffff16815260200190815260200160002060009054906101000a900460ff16905092915050565b6000801b81565b7fb8ca5430e403d88aa14f3587e1aa5a2121b1acebf2201dde30800337ea6af07581565b7f2172861495e7b85edac73e3cd5fbb42dd675baadf627720e687bcfdaca02509681565b6105c882610385565b6105d18161066e565b6105db838361076a565b505050565b7ffcc2475dd4c7105badaeda1c2b2d4b214c460b3a13fbc17d7998c4a3be00696681565b60007f01ffc9a7000000000000000000000000000000000000000000000000000000007bffffffffffffffffffffffffffffffffffffffffffffffffffffffff1916827bffffffffffffffffffffffffffffffffffffffffffffffffffffffff1916149050919050565b61067f8161067a610762565b61084b565b50565b61068c8282610506565b61075e57600160008084815260200190815260200160002060000160008373ffffffffffffffffffffffffffffffffffffffff1673ffffffffffffffffffffffffffffffffffffffff16815260200190815260200160002060006101000a81548160ff021916908315150217905550610703610762565b73ffffffffffffffffffffffffffffffffffffffff168173ffffffffffffffffffffffffffffffffffffffff16837f2f8788117e7eff1d82e926ec794901d17c78024a50270940304540a733656f0d60405160405180910390a45b5050565b600033905090565b6107748282610506565b1561084757600080600084815260200190815260200160002060000160008373ffffffffffffffffffffffffffffffffffffffff1673ffffffffffffffffffffffffffffffffffffffff16815260200190815260200160002060006101000a81548160ff0219169083151502179055506107ec610762565b73ffffffffffffffffffffffffffffffffffffffff168173ffffffffffffffffffffffffffffffffffffffff16837ff6391f5c32d9c69d2a47ea670b442974b53935d1edc7fd64eb21e047a839171b60405160405180910390a45b5050565b6108558282610506565b6108e45761087a8173ffffffffffffffffffffffffffffffffffffffff1660146108e8565b6108888360001c60206108e8565b604051602001610899929190610e45565b6040516020818303038152906040526040517f08c379a00000000000000000000000000000000000000000000000000000000081526004016108db9190610eb5565b60405180910390fd5b5050565b6060600060028360026108fb9190610fd4565b6109059190610f7e565b67ffffffffffffffff811115610944577f4e487b7100000000000000000000000000000000000000000000000000000000600052604160045260246000fd5b6040519080825280601f01601f1916602001820160405280156109765781602001600182028036833780820191505090505b5090507f3000000000000000000000000000000000000000000000000000000000000000816000815181106109d4577f4e487b7100000000000000000000000000000000000000000000000000000000600052603260045260246000fd5b60200101907effffffffffffffffffffffffffffffffffffffffffffffffffffffffffffff1916908160001a9053507f780000000000000000000000000000000000000000000000000000000000000081600181518110610a5e577f4e487b7100000000000000000000000000000000000000000000000000000000600052603260045260246000fd5b60200101907effffffffffffffffffffffffffffffffffffffffffffffffffffffffffffff1916908160001a90535060006001846002610a9e9190610fd4565b610aa89190610f7e565b90505b6001811115610b94577f3031323334353637383961626364656600000000000000000000000000000000600f861660108110610b10577f4e487b7100000000000000000000000000000000000000000000000000000000600052603260045260246000fd5b1a60f81b828281518110610b4d577f4e487b7100000000000000000000000000000000000000000000000000000000600052603260045260246000fd5b60200101907effffffffffffffffffffffffffffffffffffffffffffffffffffffffffffff1916908160001a905350600485901c945080610b8d906110df565b9050610aab565b5060008414610bd8576040517f08c379a0000000000000000000000000000000000000000000000000000000008152600401610bcf90610ed7565b60405180910390fd5b8091505092915050565b600081359050610bf181611265565b92915050565b600081359050610c068161127c565b92915050565b600081359050610c1b81611293565b92915050565b60008060408385031215610c3457600080fd5b6000610c4285828601610be2565b9250506020610c5385828601610bf7565b9150509250929050565b600060208284031215610c6f57600080fd5b6000610c7d84828501610bf7565b91505092915050565b60008060408385031215610c9957600080fd5b6000610ca785828601610bf7565b9250506020610cb885828601610be2565b9150509250929050565b600060208284031215610cd457600080fd5b6000610ce284828501610c0c565b91505092915050565b610cf481611040565b82525050565b610d038161104c565b82525050565b6000610d1482610f57565b610d1e8185610f62565b9350610d2e8185602086016110ac565b610d3781611138565b840191505092915050565b6000610d4d82610f57565b610d578185610f73565b9350610d678185602086016110ac565b80840191505092915050565b6000610d80602083610f62565b9150610d8b82611149565b602082019050919050565b6000610da3600a83610f62565b9150610dae82611172565b602082019050919050565b6000610dc6600c83610f62565b9150610dd18261119b565b602082019050919050565b6000610de9601783610f73565b9150610df4826111c4565b601782019050919050565b6000610e0c601183610f73565b9150610e17826111ed565b601182019050919050565b6000610e2f602f83610f62565b9150610e3a82611216565b604082019050919050565b6000610e5082610ddc565b9150610e5c8285610d42565b9150610e6782610dff565b9150610e738284610d42565b91508190509392505050565b6000602082019050610e946000830184610ceb565b92915050565b6000602082019050610eaf6000830184610cfa565b92915050565b60006020820190508181036000830152610ecf8184610d09565b905092915050565b60006020820190508181036000830152610ef081610d73565b9050919050565b60006020820190508181036000830152610f1081610d96565b9050919050565b60006020820190508181036000830152610f3081610db9565b9050919050565b60006020820190508181036000830152610f5081610e22565b9050919050565b600081519050919050565b600082825260208201905092915050565b600081905092915050565b6000610f89826110a2565b9150610f94836110a2565b9250827fffffffffffffffffffffffffffffffffffffffffffffffffffffffffffffffff03821115610fc957610fc8611109565b5b828201905092915050565b6000610fdf826110a2565b9150610fea836110a2565b9250817fffffffffffffffffffffffffffffffffffffffffffffffffffffffffffffffff048311821515161561102357611022611109565b5b828202905092915050565b600061103982611082565b9050919050565b60008115159050919050565b6000819050919050565b60007fffffffff0000000000000000000000000000000000000000000000000000000082169050919050565b600073ffffffffffffffffffffffffffffffffffffffff82169050919050565b6000819050919050565b60005b838110156110ca5780820151818401526020810190506110af565b838111156110d9576000848401525b50505050565b60006110ea826110a2565b915060008214156110fe576110fd611109565b5b600182039050919050565b7f4e487b7100000000000000000000000000000000000000000000000000000000600052601160045260246000fd5b6000601f19601f8301169050919050565b7f537472696e67733a20686578206c656e67746820696e73756666696369656e74600082015250565b7f5573657220616464656400000000000000000000000000000000000000000000600082015250565b7f446f63746f722061646465640000000000000000000000000000000000000000600082015250565b7f416363657373436f6e74726f6c3a206163636f756e7420000000000000000000600082015250565b7f206973206d697373696e6720726f6c6520000000000000000000000000000000600082015250565b7f416363657373436f6e74726f6c3a2063616e206f6e6c792072656e6f756e636560008201527f20726f6c657320666f722073656c660000000000000000000000000000000000602082015250565b61126e8161102e565b811461127957600080fd5b50565b6112858161104c565b811461129057600080fd5b50565b61129c81611056565b81146112a757600080fd5b5056fea2646970667358221220047d36a23360f79092e1b80f04680e1a0e8a765f8e57547245e0ec2e8fd22b7f64736f6c63430008040033",
  "linkReferences": {},
  "deployedLinkReferences": {}
}