{
  "_format": "hh-sol-artifact-1",
  "contractName": "HealthStore",
  "sourceName": "contracts/HealthStore.sol",
  "abi": [
    {
      "inputs": [
        {
          "internalType": "contract HealthControl",
          "name": "_control_address",
          "type": "address"
        },
        {
          "internalType": "address",
          "name": "_admin",
          "type": "address"
        }
      ],
      "stateMutability": "nonpayable",
      "type": "constructor"
    },
    {
      "anonymous": false,
      "inputs": [
        {
          "indexed": true,
          "internalType": "address",
          "name": "user",
          "type": "address"
        },
        {
          "indexed": true,
          "internalType": "address",
          "name": "doctor",
          "type": "address"
        },
        {
          "indexed": false,
          "internalType": "bool",
          "name": "status",
          "type": "bool"
        }
      ],
      "name": "UserApprove",
      "type": "event"
    },
    {
      "anonymous": false,
      "inputs": [
        {
          "indexed": true,
          "internalType": "address",
          "name": "user",
          "type": "address"
        },
        {
          "indexed": false,
          "internalType": "bool",
          "name": "status",
          "type": "bool"
        }
      ],
      "name": "UserDisabled",
      "type": "event"
    },
    {
      "inputs": [],
      "name": "ROLE_ADMIN",
      "outputs": [
        {
          "internalType": "bytes32",
          "name": "",
          "type": "bytes32"
        }
      ],
      "stateMutability": "view",
      "type": "function"
    },
    {
      "inputs": [],
      "name": "ROLE_DOCTOR",
      "outputs": [
        {
          "internalType": "bytes32",
          "name": "",
          "type": "bytes32"
        }
      ],
      "stateMutability": "view",
      "type": "function"
    },
    {
      "inputs": [],
      "name": "ROLE_USER",
      "outputs": [
        {
          "internalType": "bytes32",
          "name": "",
          "type": "bytes32"
        }
      ],
      "stateMutability": "view",
      "type": "function"
    },
    {
      "inputs": [
        {
          "internalType": "address",
          "name": "_user",
          "type": "address"
        },
        {
          "internalType": "bytes32",
          "name": "_userCidData",
          "type": "bytes32"
        }
      ],
      "name": "addHistorial",
      "outputs": [],
      "stateMutability": "nonpayable",
      "type": "function"
    },
    {
      "inputs": [
        {
          "internalType": "address",
          "name": "_user",
          "type": "address"
        },
        {
          "internalType": "address",
          "name": "doctor",
          "type": "address"
        }
      ],
      "name": "allowance",
      "outputs": [
        {
          "internalType": "bool",
          "name": "",
          "type": "bool"
        }
      ],
      "stateMutability": "view",
      "type": "function"
    },
    {
      "inputs": [
        {
          "internalType": "address",
          "name": "doctor",
          "type": "address"
        }
      ],
      "name": "approveUser",
      "outputs": [
        {
          "internalType": "bool",
          "name": "",
          "type": "bool"
        }
      ],
      "stateMutability": "nonpayable",
      "type": "function"
    },
    {
      "inputs": [
        {
          "internalType": "address",
          "name": "_user",
          "type": "address"
        }
      ],
      "name": "disableUser",
      "outputs": [],
      "stateMutability": "nonpayable",
      "type": "function"
    },
    {
      "inputs": [
        {
          "internalType": "address",
          "name": "_user",
          "type": "address"
        }
      ],
      "name": "viewHistorial",
      "outputs": [
        {
          "internalType": "bytes32",
          "name": "",
          "type": "bytes32"
        },
        {
          "internalType": "bool",
          "name": "",
          "type": "bool"
        }
      ],
      "stateMutability": "view",
      "type": "function"
    }
  ],
  "bytecode": "0x60806040523480156200001157600080fd5b50604051620012e9380380620012e98339818101604052810190620000379190620000ee565b806000806101000a81548173ffffffffffffffffffffffffffffffffffffffff021916908373ffffffffffffffffffffffffffffffffffffffff16021790555081600160006101000a81548173ffffffffffffffffffffffffffffffffffffffff021916908373ffffffffffffffffffffffffffffffffffffffff1602179055505050620001ab565b600081519050620000d18162000177565b92915050565b600081519050620000e88162000191565b92915050565b600080604083850312156200010257600080fd5b60006200011285828601620000d7565b92505060206200012585828601620000c0565b9150509250929050565b60006200013c8262000157565b9050919050565b600062000150826200012f565b9050919050565b600073ffffffffffffffffffffffffffffffffffffffff82169050919050565b62000182816200012f565b81146200018e57600080fd5b50565b6200019c8162000143565b8114620001a857600080fd5b50565b61112e80620001bb6000396000f3fe608060405234801561001057600080fd5b50600436106100885760003560e01c8063d624fdb61161005b578063d624fdb614610116578063dd62ed3e14610146578063ee6649a114610176578063ffcb79721461019257610088565b806323688b281461008d5780633c20d5fa146100a9578063b941719e146100da578063d391014b146100f8575b600080fd5b6100a760048036038101906100a29190610d1e565b6101b0565b005b6100c360048036038101906100be9190610cb9565b61046a565b6040516100d1929190610e9b565b60405180910390f35b6100e2610890565b6040516100ef9190610e57565b60405180910390f35b6101006108b4565b60405161010d9190610e57565b60405180910390f35b610130600480360381019061012b9190610cb9565b6108d8565b60405161013d9190610e3c565b60405180910390f35b610160600480360381019061015b9190610ce2565b6108fb565b60405161016d9190610e3c565b60405180910390f35b610190600480360381019061018b9190610cb9565b61098f565b005b61019a610b50565b6040516101a79190610e57565b60405180910390f35b600160009054906101000a900473ffffffffffffffffffffffffffffffffffffffff1673ffffffffffffffffffffffffffffffffffffffff166391d148547ffcc2475dd4c7105badaeda1c2b2d4b214c460b3a13fbc17d7998c4a3be006966610217610b74565b6040518363ffffffff1660e01b8152600401610234929190610e72565b60206040518083038186803b15801561024c57600080fd5b505afa158015610260573d6000803e3d6000fd5b505050506040513d601f19601f820116820180604052508101906102849190610d5a565b6102c3576040517f08c379a00000000000000000000000000000000000000000000000000000000081526004016102ba90610f04565b60405180910390fd5b600160009054906101000a900473ffffffffffffffffffffffffffffffffffffffff1673ffffffffffffffffffffffffffffffffffffffff166391d148547fb8ca5430e403d88aa14f3587e1aa5a2121b1acebf2201dde30800337ea6af075846040518363ffffffff1660e01b8152600401610340929190610e72565b60206040518083038186803b15801561035857600080fd5b505afa15801561036c573d6000803e3d6000fd5b505050506040513d601f19601f820116820180604052508101906103909190610d5a565b6103cf576040517f08c379a00000000000000000000000000000000000000000000000000000000081526004016103c690610f24565b60405180910390fd5b6103e0826103db610b74565b6108fb565b61041f576040517f08c379a000000000000000000000000000000000000000000000000000000000815260040161041690610ee4565b60405180910390fd5b80600360008473ffffffffffffffffffffffffffffffffffffffff1673ffffffffffffffffffffffffffffffffffffffff168152602001908152602001600020600101819055505050565b600080600160009054906101000a900473ffffffffffffffffffffffffffffffffffffffff1673ffffffffffffffffffffffffffffffffffffffff166391d148547ffcc2475dd4c7105badaeda1c2b2d4b214c460b3a13fbc17d7998c4a3be0069666104d4610b74565b6040518363ffffffff1660e01b81526004016104f1929190610e72565b60206040518083038186803b15801561050957600080fd5b505afa15801561051d573d6000803e3d6000fd5b505050506040513d601f19601f820116820180604052508101906105419190610d5a565b8061061c5750600160009054906101000a900473ffffffffffffffffffffffffffffffffffffffff1673ffffffffffffffffffffffffffffffffffffffff166391d148547fb8ca5430e403d88aa14f3587e1aa5a2121b1acebf2201dde30800337ea6af0756105ae610b74565b6040518363ffffffff1660e01b81526004016105cb929190610e72565b60206040518083038186803b1580156105e357600080fd5b505afa1580156105f7573d6000803e3d6000fd5b505050506040513d601f19601f8201168201806040525081019061061b9190610d5a565b5b61065b576040517f08c379a000000000000000000000000000000000000000000000000000000000815260040161065290610f04565b60405180910390fd5b600160009054906101000a900473ffffffffffffffffffffffffffffffffffffffff1673ffffffffffffffffffffffffffffffffffffffff166391d148547fb8ca5430e403d88aa14f3587e1aa5a2121b1acebf2201dde30800337ea6af075856040518363ffffffff1660e01b81526004016106d8929190610e72565b60206040518083038186803b1580156106f057600080fd5b505afa158015610704573d6000803e3d6000fd5b505050506040513d601f19601f820116820180604052508101906107289190610d5a565b610767576040517f08c379a000000000000000000000000000000000000000000000000000000000815260040161075e90610f24565b60405180910390fd5b61077883610773610b74565b6108fb565b806107b55750610786610b74565b73ffffffffffffffffffffffffffffffffffffffff168373ffffffffffffffffffffffffffffffffffffffff16145b6107f4576040517f08c379a00000000000000000000000000000000000000000000000000000000081526004016107eb90610ee4565b60405180910390fd5b600360008473ffffffffffffffffffffffffffffffffffffffff1673ffffffffffffffffffffffffffffffffffffffff16815260200190815260200160002060010154600360008573ffffffffffffffffffffffffffffffffffffffff1673ffffffffffffffffffffffffffffffffffffffff16815260200190815260200160002060000160149054906101000a900460ff1691509150915091565b7fb8ca5430e403d88aa14f3587e1aa5a2121b1acebf2201dde30800337ea6af07581565b7f2172861495e7b85edac73e3cd5fbb42dd675baadf627720e687bcfdaca02509681565b6000806108e3610b74565b90506108f181846001610b7c565b6001915050919050565b6000600260008473ffffffffffffffffffffffffffffffffffffffff1673ffffffffffffffffffffffffffffffffffffffff16815260200190815260200160002060008373ffffffffffffffffffffffffffffffffffffffff1673ffffffffffffffffffffffffffffffffffffffff16815260200190815260200160002060009054906101000a900460ff16905092915050565b600160009054906101000a900473ffffffffffffffffffffffffffffffffffffffff1673ffffffffffffffffffffffffffffffffffffffff166391d148547f2172861495e7b85edac73e3cd5fbb42dd675baadf627720e687bcfdaca0250966109f6610b74565b6040518363ffffffff1660e01b8152600401610a13929190610e72565b60206040518083038186803b158015610a2b57600080fd5b505afa158015610a3f573d6000803e3d6000fd5b505050506040513d601f19601f82011682018060405250810190610a639190610d5a565b15610aa3576040517f08c379a0000000000000000000000000000000000000000000000000000000008152600401610a9a90610ec4565b60405180910390fd5b6000600360008373ffffffffffffffffffffffffffffffffffffffff1673ffffffffffffffffffffffffffffffffffffffff16815260200190815260200160002060000160146101000a81548160ff0219169083151502179055508073ffffffffffffffffffffffffffffffffffffffff167fbc8fc9d963e5a6f519905f9cd4311baa0bd8b7e8c5adb9c2d086d988b19bfe466000604051610b459190610e3c565b60405180910390a250565b7ffcc2475dd4c7105badaeda1c2b2d4b214c460b3a13fbc17d7998c4a3be00696681565b600033905090565b80600260008573ffffffffffffffffffffffffffffffffffffffff1673ffffffffffffffffffffffffffffffffffffffff16815260200190815260200160002060008473ffffffffffffffffffffffffffffffffffffffff1673ffffffffffffffffffffffffffffffffffffffff16815260200190815260200160002060006101000a81548160ff0219169083151502179055508173ffffffffffffffffffffffffffffffffffffffff168373ffffffffffffffffffffffffffffffffffffffff167ffcf76e8d2781f87c844fe5e18a9c8010cc13f2950368282be09a264299d3ba8e83604051610c6d9190610e3c565b60405180910390a3505050565b600081359050610c89816110b3565b92915050565b600081519050610c9e816110ca565b92915050565b600081359050610cb3816110e1565b92915050565b600060208284031215610ccb57600080fd5b6000610cd984828501610c7a565b91505092915050565b60008060408385031215610cf557600080fd5b6000610d0385828601610c7a565b9250506020610d1485828601610c7a565b9150509250929050565b60008060408385031215610d3157600080fd5b6000610d3f85828601610c7a565b9250506020610d5085828601610ca4565b9150509250929050565b600060208284031215610d6c57600080fd5b6000610d7a84828501610c8f565b91505092915050565b610d8c81610f55565b82525050565b610d9b81610f67565b82525050565b610daa81610f73565b82525050565b6000610dbd601e83610f44565b9150610dc882610f9d565b602082019050919050565b6000610de0602483610f44565b9150610deb82610fc6565b604082019050919050565b6000610e03602183610f44565b9150610e0e82611015565b604082019050919050565b6000610e26602183610f44565b9150610e3182611064565b604082019050919050565b6000602082019050610e516000830184610d92565b92915050565b6000602082019050610e6c6000830184610da1565b92915050565b6000604082019050610e876000830185610da1565b610e946020830184610d83565b9392505050565b6000604082019050610eb06000830185610da1565b610ebd6020830184610d92565b9392505050565b60006020820190508181036000830152610edd81610db0565b9050919050565b60006020820190508181036000830152610efd81610dd3565b9050919050565b60006020820190508181036000830152610f1d81610df6565b9050919050565b60006020820190508181036000830152610f3d81610e19565b9050919050565b600082825260208201905092915050565b6000610f6082610f7d565b9050919050565b60008115159050919050565b6000819050919050565b600073ffffffffffffffffffffffffffffffffffffffff82169050919050565b7f4865616c746853746f72653a2055736572206973206e6f742061646d696e0000600082015250565b7f4865616c746853746f72653a20446f63746f7220646f6573206e6f7420616c6c60008201527f6f77656400000000000000000000000000000000000000000000000000000000602082015250565b7f4865616c746853746f72653a2055736572206973206e6f74206120646f63746f60008201527f7200000000000000000000000000000000000000000000000000000000000000602082015250565b7f4865616c746853746f72653a2055736572206973206e6f74207265676973746560008201527f7200000000000000000000000000000000000000000000000000000000000000602082015250565b6110bc81610f55565b81146110c757600080fd5b50565b6110d381610f67565b81146110de57600080fd5b50565b6110ea81610f73565b81146110f557600080fd5b5056fea264697066735822122007c948dad04f72ecc6b28824db322e3e0d0894c6d1645639de3a0515e37c9dca64736f6c63430008040033",
  "linkReferences": {},
  "deployedLinkReferences": {}
}