{
  "_format": "hh-sol-artifact-1",
  "contractName": "HealthStore",
  "sourceName": "contracts/HealtStore.sol",
  "abi": [
    {
      "inputs": [
        {
          "internalType": "contract HealthControl",
          "name": "_control_address",
          "type": "address"
        },
        {
          "internalType": "address",
          "name": "_admin",
          "type": "address"
        }
      ],
      "stateMutability": "nonpayable",
      "type": "constructor"
    },
    {
      "anonymous": false,
      "inputs": [
        {
          "indexed": true,
          "internalType": "address",
          "name": "user",
          "type": "address"
        },
        {
          "indexed": true,
          "internalType": "address",
          "name": "doctor",
          "type": "address"
        },
        {
          "indexed": false,
          "internalType": "bool",
          "name": "status",
          "type": "bool"
        }
      ],
      "name": "UserApprove",
      "type": "event"
    },
    {
      "anonymous": false,
      "inputs": [
        {
          "indexed": true,
          "internalType": "address",
          "name": "user",
          "type": "address"
        },
        {
          "indexed": false,
          "internalType": "bool",
          "name": "status",
          "type": "bool"
        }
      ],
      "name": "UserDisabled",
      "type": "event"
    },
    {
      "inputs": [],
      "name": "ROLE_ADMIN",
      "outputs": [
        {
          "internalType": "bytes32",
          "name": "",
          "type": "bytes32"
        }
      ],
      "stateMutability": "view",
      "type": "function"
    },
    {
      "inputs": [],
      "name": "ROLE_DOCTOR",
      "outputs": [
        {
          "internalType": "bytes32",
          "name": "",
          "type": "bytes32"
        }
      ],
      "stateMutability": "view",
      "type": "function"
    },
    {
      "inputs": [],
      "name": "ROLE_USER",
      "outputs": [
        {
          "internalType": "bytes32",
          "name": "",
          "type": "bytes32"
        }
      ],
      "stateMutability": "view",
      "type": "function"
    },
    {
      "inputs": [
        {
          "internalType": "address",
          "name": "_user",
          "type": "address"
        },
        {
          "internalType": "string",
          "name": "_userCidData",
          "type": "string"
        }
      ],
      "name": "addHistorial",
      "outputs": [],
      "stateMutability": "nonpayable",
      "type": "function"
    },
    {
      "inputs": [
        {
          "internalType": "address",
          "name": "_user",
          "type": "address"
        },
        {
          "internalType": "address",
          "name": "doctor",
          "type": "address"
        }
      ],
      "name": "allowance",
      "outputs": [
        {
          "internalType": "bool",
          "name": "",
          "type": "bool"
        }
      ],
      "stateMutability": "view",
      "type": "function"
    },
    {
      "inputs": [
        {
          "internalType": "address",
          "name": "doctor",
          "type": "address"
        }
      ],
      "name": "approveUser",
      "outputs": [
        {
          "internalType": "bool",
          "name": "",
          "type": "bool"
        }
      ],
      "stateMutability": "nonpayable",
      "type": "function"
    },
    {
      "inputs": [
        {
          "internalType": "address",
          "name": "_user",
          "type": "address"
        }
      ],
      "name": "disableUser",
      "outputs": [],
      "stateMutability": "nonpayable",
      "type": "function"
    },
    {
      "inputs": [
        {
          "internalType": "address",
          "name": "_user",
          "type": "address"
        }
      ],
      "name": "viewHistorial",
      "outputs": [
        {
          "internalType": "string",
          "name": "",
          "type": "string"
        }
      ],
      "stateMutability": "view",
      "type": "function"
    }
  ],
  "bytecode": "0x60806040523480156200001157600080fd5b50604051620014b3380380620014b38339818101604052810190620000379190620000ee565b806000806101000a81548173ffffffffffffffffffffffffffffffffffffffff021916908373ffffffffffffffffffffffffffffffffffffffff16021790555081600160006101000a81548173ffffffffffffffffffffffffffffffffffffffff021916908373ffffffffffffffffffffffffffffffffffffffff1602179055505050620001ab565b600081519050620000d18162000177565b92915050565b600081519050620000e88162000191565b92915050565b600080604083850312156200010257600080fd5b60006200011285828601620000d7565b92505060206200012585828601620000c0565b9150509250929050565b60006200013c8262000157565b9050919050565b600062000150826200012f565b9050919050565b600073ffffffffffffffffffffffffffffffffffffffff82169050919050565b62000182816200012f565b81146200018e57600080fd5b50565b6200019c8162000143565b8114620001a857600080fd5b50565b6112f880620001bb6000396000f3fe608060405234801561001057600080fd5b50600436106100885760003560e01c8063d624fdb61161005b578063d624fdb614610115578063dd62ed3e14610145578063ee6649a114610175578063ffcb79721461019157610088565b80633c20d5fa1461008d578063b941719e146100bd578063c642cc7f146100db578063d391014b146100f7575b600080fd5b6100a760048036038101906100a29190610cdb565b6101af565b6040516100b49190610f0e565b60405180910390f35b6100c56104f2565b6040516100d29190610eca565b60405180910390f35b6100f560048036038101906100f09190610d40565b610516565b005b6100ff6107e0565b60405161010c9190610eca565b60405180910390f35b61012f600480360381019061012a9190610cdb565b610804565b60405161013c9190610eaf565b60405180910390f35b61015f600480360381019061015a9190610d04565b610827565b60405161016c9190610eaf565b60405180910390f35b61018f600480360381019061018a9190610cdb565b6108bb565b005b610199610a7c565b6040516101a69190610eca565b60405180910390f35b6060600160009054906101000a900473ffffffffffffffffffffffffffffffffffffffff1673ffffffffffffffffffffffffffffffffffffffff166391d148547ffcc2475dd4c7105badaeda1c2b2d4b214c460b3a13fbc17d7998c4a3be006966610218610aa0565b6040518363ffffffff1660e01b8152600401610235929190610ee5565b60206040518083038186803b15801561024d57600080fd5b505afa158015610261573d6000803e3d6000fd5b505050506040513d601f19601f820116820180604052508101906102859190610d94565b6102c4576040517f08c379a00000000000000000000000000000000000000000000000000000000081526004016102bb90610f70565b60405180910390fd5b600160009054906101000a900473ffffffffffffffffffffffffffffffffffffffff1673ffffffffffffffffffffffffffffffffffffffff166391d148547fb8ca5430e403d88aa14f3587e1aa5a2121b1acebf2201dde30800337ea6af075846040518363ffffffff1660e01b8152600401610341929190610ee5565b60206040518083038186803b15801561035957600080fd5b505afa15801561036d573d6000803e3d6000fd5b505050506040513d601f19601f820116820180604052508101906103919190610d94565b6103d0576040517f08c379a00000000000000000000000000000000000000000000000000000000081526004016103c790610f90565b60405180910390fd5b6103e1826103dc610aa0565b610827565b610420576040517f08c379a000000000000000000000000000000000000000000000000000000000815260040161041790610f50565b60405180910390fd5b600360008373ffffffffffffffffffffffffffffffffffffffff1673ffffffffffffffffffffffffffffffffffffffff168152602001908152602001600020600101805461046d906110ac565b80601f0160208091040260200160405190810160405280929190818152602001828054610499906110ac565b80156104e65780601f106104bb576101008083540402835291602001916104e6565b820191906000526020600020905b8154815290600101906020018083116104c957829003601f168201915b50505050509050919050565b7fb8ca5430e403d88aa14f3587e1aa5a2121b1acebf2201dde30800337ea6af07581565b600160009054906101000a900473ffffffffffffffffffffffffffffffffffffffff1673ffffffffffffffffffffffffffffffffffffffff166391d148547ffcc2475dd4c7105badaeda1c2b2d4b214c460b3a13fbc17d7998c4a3be00696661057d610aa0565b6040518363ffffffff1660e01b815260040161059a929190610ee5565b60206040518083038186803b1580156105b257600080fd5b505afa1580156105c6573d6000803e3d6000fd5b505050506040513d601f19601f820116820180604052508101906105ea9190610d94565b610629576040517f08c379a000000000000000000000000000000000000000000000000000000000815260040161062090610f70565b60405180910390fd5b600160009054906101000a900473ffffffffffffffffffffffffffffffffffffffff1673ffffffffffffffffffffffffffffffffffffffff166391d148547fb8ca5430e403d88aa14f3587e1aa5a2121b1acebf2201dde30800337ea6af075846040518363ffffffff1660e01b81526004016106a6929190610ee5565b60206040518083038186803b1580156106be57600080fd5b505afa1580156106d2573d6000803e3d6000fd5b505050506040513d601f19601f820116820180604052508101906106f69190610d94565b610735576040517f08c379a000000000000000000000000000000000000000000000000000000000815260040161072c90610f90565b60405180910390fd5b61074682610741610aa0565b610827565b610785576040517f08c379a000000000000000000000000000000000000000000000000000000000815260040161077c90610f50565b60405180910390fd5b80600360008473ffffffffffffffffffffffffffffffffffffffff1673ffffffffffffffffffffffffffffffffffffffff16815260200190815260200160002060010190805190602001906107db929190610ba6565b505050565b7f2172861495e7b85edac73e3cd5fbb42dd675baadf627720e687bcfdaca02509681565b60008061080f610aa0565b905061081d81846001610aa8565b6001915050919050565b6000600260008473ffffffffffffffffffffffffffffffffffffffff1673ffffffffffffffffffffffffffffffffffffffff16815260200190815260200160002060008373ffffffffffffffffffffffffffffffffffffffff1673ffffffffffffffffffffffffffffffffffffffff16815260200190815260200160002060009054906101000a900460ff16905092915050565b600160009054906101000a900473ffffffffffffffffffffffffffffffffffffffff1673ffffffffffffffffffffffffffffffffffffffff166391d148547f2172861495e7b85edac73e3cd5fbb42dd675baadf627720e687bcfdaca025096610922610aa0565b6040518363ffffffff1660e01b815260040161093f929190610ee5565b60206040518083038186803b15801561095757600080fd5b505afa15801561096b573d6000803e3d6000fd5b505050506040513d601f19601f8201168201806040525081019061098f9190610d94565b156109cf576040517f08c379a00000000000000000000000000000000000000000000000000000000081526004016109c690610f30565b60405180910390fd5b6000600360008373ffffffffffffffffffffffffffffffffffffffff1673ffffffffffffffffffffffffffffffffffffffff16815260200190815260200160002060000160146101000a81548160ff0219169083151502179055508073ffffffffffffffffffffffffffffffffffffffff167fbc8fc9d963e5a6f519905f9cd4311baa0bd8b7e8c5adb9c2d086d988b19bfe466000604051610a719190610eaf565b60405180910390a250565b7ffcc2475dd4c7105badaeda1c2b2d4b214c460b3a13fbc17d7998c4a3be00696681565b600033905090565b80600260008573ffffffffffffffffffffffffffffffffffffffff1673ffffffffffffffffffffffffffffffffffffffff16815260200190815260200160002060008473ffffffffffffffffffffffffffffffffffffffff1673ffffffffffffffffffffffffffffffffffffffff16815260200190815260200160002060006101000a81548160ff0219169083151502179055508173ffffffffffffffffffffffffffffffffffffffff168373ffffffffffffffffffffffffffffffffffffffff167ffcf76e8d2781f87c844fe5e18a9c8010cc13f2950368282be09a264299d3ba8e83604051610b999190610eaf565b60405180910390a3505050565b828054610bb2906110ac565b90600052602060002090601f016020900481019282610bd45760008555610c1b565b82601f10610bed57805160ff1916838001178555610c1b565b82800160010185558215610c1b579182015b82811115610c1a578251825591602001919060010190610bff565b5b509050610c289190610c2c565b5090565b5b80821115610c45576000816000905550600101610c2d565b5090565b6000610c5c610c5784610fd5565b610fb0565b905082815260208101848484011115610c7457600080fd5b610c7f84828561106a565b509392505050565b600081359050610c9681611294565b92915050565b600081519050610cab816112ab565b92915050565b600082601f830112610cc257600080fd5b8135610cd2848260208601610c49565b91505092915050565b600060208284031215610ced57600080fd5b6000610cfb84828501610c87565b91505092915050565b60008060408385031215610d1757600080fd5b6000610d2585828601610c87565b9250506020610d3685828601610c87565b9150509250929050565b60008060408385031215610d5357600080fd5b6000610d6185828601610c87565b925050602083013567ffffffffffffffff811115610d7e57600080fd5b610d8a85828601610cb1565b9150509250929050565b600060208284031215610da657600080fd5b6000610db484828501610c9c565b91505092915050565b610dc681611022565b82525050565b610dd581611034565b82525050565b610de481611040565b82525050565b6000610df582611006565b610dff8185611011565b9350610e0f818560208601611079565b610e188161116d565b840191505092915050565b6000610e30601e83611011565b9150610e3b8261117e565b602082019050919050565b6000610e53602483611011565b9150610e5e826111a7565b604082019050919050565b6000610e76602183611011565b9150610e81826111f6565b604082019050919050565b6000610e99602183611011565b9150610ea482611245565b604082019050919050565b6000602082019050610ec46000830184610dcc565b92915050565b6000602082019050610edf6000830184610ddb565b92915050565b6000604082019050610efa6000830185610ddb565b610f076020830184610dbd565b9392505050565b60006020820190508181036000830152610f288184610dea565b905092915050565b60006020820190508181036000830152610f4981610e23565b9050919050565b60006020820190508181036000830152610f6981610e46565b9050919050565b60006020820190508181036000830152610f8981610e69565b9050919050565b60006020820190508181036000830152610fa981610e8c565b9050919050565b6000610fba610fcb565b9050610fc682826110de565b919050565b6000604051905090565b600067ffffffffffffffff821115610ff057610fef61113e565b5b610ff98261116d565b9050602081019050919050565b600081519050919050565b600082825260208201905092915050565b600061102d8261104a565b9050919050565b60008115159050919050565b6000819050919050565b600073ffffffffffffffffffffffffffffffffffffffff82169050919050565b82818337600083830152505050565b60005b8381101561109757808201518184015260208101905061107c565b838111156110a6576000848401525b50505050565b600060028204905060018216806110c457607f821691505b602082108114156110d8576110d761110f565b5b50919050565b6110e78261116d565b810181811067ffffffffffffffff821117156111065761110561113e565b5b80604052505050565b7f4e487b7100000000000000000000000000000000000000000000000000000000600052602260045260246000fd5b7f4e487b7100000000000000000000000000000000000000000000000000000000600052604160045260246000fd5b6000601f19601f8301169050919050565b7f4865616c746853746f72653a2055736572206973206e6f742061646d696e0000600082015250565b7f4865616c746853746f72653a20446f63746f7220646f6573206e6f7420616c6c60008201527f6f77656400000000000000000000000000000000000000000000000000000000602082015250565b7f4865616c746853746f72653a2055736572206973206e6f74206120646f63746f60008201527f7200000000000000000000000000000000000000000000000000000000000000602082015250565b7f4865616c746853746f72653a2055736572206973206e6f74207265676973746560008201527f7200000000000000000000000000000000000000000000000000000000000000602082015250565b61129d81611022565b81146112a857600080fd5b50565b6112b481611034565b81146112bf57600080fd5b5056fea26469706673582212209311d2d370f9ca298dfc3e4d17e9018858180bf7419fd3f02abd3fca1914ad9064736f6c63430008040033",
  "linkReferences": {},
  "deployedLinkReferences": {}
}