{
  "_format": "hh-sol-artifact-1",
  "contractName": "HealthControl",
  "sourceName": "contracts/HealthControl.sol",
  "abi": [
    {
      "inputs": [
        {
          "internalType": "address",
          "name": "admin",
          "type": "address"
        }
      ],
      "stateMutability": "nonpayable",
      "type": "constructor"
    },
    {
      "anonymous": false,
      "inputs": [
        {
          "indexed": true,
          "internalType": "address",
          "name": "doctor",
          "type": "address"
        },
        {
          "indexed": false,
          "internalType": "string",
          "name": "message",
          "type": "string"
        }
      ],
      "name": "DoctorAdded",
      "type": "event"
    },
    {
      "anonymous": false,
      "inputs": [
        {
          "indexed": true,
          "internalType": "bytes32",
          "name": "role",
          "type": "bytes32"
        },
        {
          "indexed": true,
          "internalType": "bytes32",
          "name": "previousAdminRole",
          "type": "bytes32"
        },
        {
          "indexed": true,
          "internalType": "bytes32",
          "name": "newAdminRole",
          "type": "bytes32"
        }
      ],
      "name": "RoleAdminChanged",
      "type": "event"
    },
    {
      "anonymous": false,
      "inputs": [
        {
          "indexed": true,
          "internalType": "bytes32",
          "name": "role",
          "type": "bytes32"
        },
        {
          "indexed": true,
          "internalType": "address",
          "name": "account",
          "type": "address"
        },
        {
          "indexed": true,
          "internalType": "address",
          "name": "sender",
          "type": "address"
        }
      ],
      "name": "RoleGranted",
      "type": "event"
    },
    {
      "anonymous": false,
      "inputs": [
        {
          "indexed": true,
          "internalType": "bytes32",
          "name": "role",
          "type": "bytes32"
        },
        {
          "indexed": true,
          "internalType": "address",
          "name": "account",
          "type": "address"
        },
        {
          "indexed": true,
          "internalType": "address",
          "name": "sender",
          "type": "address"
        }
      ],
      "name": "RoleRevoked",
      "type": "event"
    },
    {
      "anonymous": false,
      "inputs": [
        {
          "indexed": true,
          "internalType": "address",
          "name": "user",
          "type": "address"
        },
        {
          "indexed": false,
          "internalType": "string",
          "name": "message",
          "type": "string"
        }
      ],
      "name": "UserAdded",
      "type": "event"
    },
    {
      "inputs": [],
      "name": "DEFAULT_ADMIN_ROLE",
      "outputs": [
        {
          "internalType": "bytes32",
          "name": "",
          "type": "bytes32"
        }
      ],
      "stateMutability": "view",
      "type": "function"
    },
    {
      "inputs": [],
      "name": "ROLE_ADMIN",
      "outputs": [
        {
          "internalType": "bytes32",
          "name": "",
          "type": "bytes32"
        }
      ],
      "stateMutability": "view",
      "type": "function"
    },
    {
      "inputs": [],
      "name": "ROLE_DOCTOR",
      "outputs": [
        {
          "internalType": "bytes32",
          "name": "",
          "type": "bytes32"
        }
      ],
      "stateMutability": "view",
      "type": "function"
    },
    {
      "inputs": [],
      "name": "ROLE_USER",
      "outputs": [
        {
          "internalType": "bytes32",
          "name": "",
          "type": "bytes32"
        }
      ],
      "stateMutability": "view",
      "type": "function"
    },
    {
      "inputs": [
        {
          "internalType": "address",
          "name": "_newDoctor",
          "type": "address"
        },
        {
          "internalType": "bytes32",
          "name": "_doctorCidProfile",
          "type": "bytes32"
        }
      ],
      "name": "addDoctor",
      "outputs": [],
      "stateMutability": "nonpayable",
      "type": "function"
    },
    {
      "inputs": [
        {
          "internalType": "address",
          "name": "_newUser",
          "type": "address"
        },
        {
          "internalType": "bytes32",
          "name": "_userCidProfile",
          "type": "bytes32"
        }
      ],
      "name": "addUser",
      "outputs": [],
      "stateMutability": "nonpayable",
      "type": "function"
    },
    {
      "inputs": [
        {
          "internalType": "bytes32",
          "name": "role",
          "type": "bytes32"
        }
      ],
      "name": "getRoleAdmin",
      "outputs": [
        {
          "internalType": "bytes32",
          "name": "",
          "type": "bytes32"
        }
      ],
      "stateMutability": "view",
      "type": "function"
    },
    {
      "inputs": [
        {
          "internalType": "bytes32",
          "name": "role",
          "type": "bytes32"
        },
        {
          "internalType": "address",
          "name": "account",
          "type": "address"
        }
      ],
      "name": "grantRole",
      "outputs": [],
      "stateMutability": "nonpayable",
      "type": "function"
    },
    {
      "inputs": [
        {
          "internalType": "bytes32",
          "name": "role",
          "type": "bytes32"
        },
        {
          "internalType": "address",
          "name": "account",
          "type": "address"
        }
      ],
      "name": "hasRole",
      "outputs": [
        {
          "internalType": "bool",
          "name": "",
          "type": "bool"
        }
      ],
      "stateMutability": "view",
      "type": "function"
    },
    {
      "inputs": [
        {
          "internalType": "bytes32",
          "name": "role",
          "type": "bytes32"
        },
        {
          "internalType": "address",
          "name": "account",
          "type": "address"
        }
      ],
      "name": "renounceRole",
      "outputs": [],
      "stateMutability": "nonpayable",
      "type": "function"
    },
    {
      "inputs": [
        {
          "internalType": "bytes32",
          "name": "role",
          "type": "bytes32"
        },
        {
          "internalType": "address",
          "name": "account",
          "type": "address"
        }
      ],
      "name": "revokeRole",
      "outputs": [],
      "stateMutability": "nonpayable",
      "type": "function"
    },
    {
      "inputs": [
        {
          "internalType": "bytes4",
          "name": "interfaceId",
          "type": "bytes4"
        }
      ],
      "name": "supportsInterface",
      "outputs": [
        {
          "internalType": "bool",
          "name": "",
          "type": "bool"
        }
      ],
      "stateMutability": "view",
      "type": "function"
    },
    {
      "inputs": [
        {
          "internalType": "address",
          "name": "_doctor",
          "type": "address"
        }
      ],
      "name": "viewDoctorProfile",
      "outputs": [
        {
          "internalType": "bytes32",
          "name": "",
          "type": "bytes32"
        }
      ],
      "stateMutability": "view",
      "type": "function"
    },
    {
      "inputs": [
        {
          "internalType": "address",
          "name": "_user",
          "type": "address"
        }
      ],
      "name": "viewUserProfile",
      "outputs": [
        {
          "internalType": "bytes32",
          "name": "",
          "type": "bytes32"
        }
      ],
      "stateMutability": "view",
      "type": "function"
    }
  ],
  "bytecode": "0x60806040523480156200001157600080fd5b5060405162001b1638038062001b16833981810160405281019062000037919062000326565b620000697f2172861495e7b85edac73e3cd5fbb42dd675baadf627720e687bcfdaca025096826200011460201b60201c565b620000bb7ffcc2475dd4c7105badaeda1c2b2d4b214c460b3a13fbc17d7998c4a3be0069667f2172861495e7b85edac73e3cd5fbb42dd675baadf627720e687bcfdaca0250966200012a60201b60201c565b6200010d7fb8ca5430e403d88aa14f3587e1aa5a2121b1acebf2201dde30800337ea6af0757f2172861495e7b85edac73e3cd5fbb42dd675baadf627720e687bcfdaca0250966200012a60201b60201c565b50620003a0565b6200012682826200018d60201b60201c565b5050565b60006200013d836200027e60201b60201c565b905081600080858152602001908152602001600020600101819055508181847fbd79b86ffe0ab8e8776151514217cd7cacd52c909f66475c3af44e129f0b00ff60405160405180910390a4505050565b6200019f82826200029d60201b60201c565b6200027a57600160008084815260200190815260200160002060000160008373ffffffffffffffffffffffffffffffffffffffff1673ffffffffffffffffffffffffffffffffffffffff16815260200190815260200160002060006101000a81548160ff0219169083151502179055506200021f6200030760201b60201c565b73ffffffffffffffffffffffffffffffffffffffff168173ffffffffffffffffffffffffffffffffffffffff16837f2f8788117e7eff1d82e926ec794901d17c78024a50270940304540a733656f0d60405160405180910390a45b5050565b6000806000838152602001908152602001600020600101549050919050565b600080600084815260200190815260200160002060000160008373ffffffffffffffffffffffffffffffffffffffff1673ffffffffffffffffffffffffffffffffffffffff16815260200190815260200160002060009054906101000a900460ff16905092915050565b600033905090565b600081519050620003208162000386565b92915050565b6000602082840312156200033957600080fd5b600062000349848285016200030f565b91505092915050565b60006200035f8262000366565b9050919050565b600073ffffffffffffffffffffffffffffffffffffffff82169050919050565b620003918162000352565b81146200039d57600080fd5b50565b61176680620003b06000396000f3fe608060405234801561001057600080fd5b50600436106100ea5760003560e01c806391d148541161008c578063d19b947711610066578063d19b94771461025b578063d391014b1461028b578063d547741f146102a9578063ffcb7972146102c5576100ea565b806391d14854146101ef578063a217fddf1461021f578063b941719e1461023d576100ea565b80632f2ff15d116100c85780632f2ff15d1461016b57806336568abe146101875780633b65e261146101a357806364f42a99146101d3576100ea565b806301ffc9a7146100ef57806306674d701461011f578063248a9ca31461013b575b600080fd5b61010960048036038101906101049190610f92565b6102e3565b60405161011691906111b8565b60405180910390f35b61013960048036038101906101349190610ef1565b61035d565b005b61015560048036038101906101509190610f2d565b61041b565b60405161016291906111d3565b60405180910390f35b61018560048036038101906101809190610f56565b61043a565b005b6101a1600480360381019061019c9190610f56565b61045b565b005b6101bd60048036038101906101b89190610ec8565b6104de565b6040516101ca91906111d3565b60405180910390f35b6101ed60048036038101906101e89190610ef1565b610590565b005b61020960048036038101906102049190610f56565b61064e565b60405161021691906111b8565b60405180910390f35b6102276106b8565b60405161023491906111d3565b60405180910390f35b6102456106bf565b60405161025291906111d3565b60405180910390f35b61027560048036038101906102709190610ec8565b6106e3565b60405161028291906111d3565b60405180910390f35b610293610842565b6040516102a091906111d3565b60405180910390f35b6102c360048036038101906102be9190610f56565b610866565b005b6102cd610887565b6040516102da91906111d3565b60405180910390f35b60007f7965db0b000000000000000000000000000000000000000000000000000000007bffffffffffffffffffffffffffffffffffffffffffffffffffffffff1916827bffffffffffffffffffffffffffffffffffffffffffffffffffffffff191614806103565750610355826108ab565b5b9050919050565b6103877ffcc2475dd4c7105badaeda1c2b2d4b214c460b3a13fbc17d7998c4a3be0069668361043a565b80600160008473ffffffffffffffffffffffffffffffffffffffff1673ffffffffffffffffffffffffffffffffffffffff168152602001908152602001600020819055508173ffffffffffffffffffffffffffffffffffffffff167f0ee331c9cfbbc9903648d754b8c881413fa4e0b00b6de7074f9bb7ec3aad42ef60405161040f90611290565b60405180910390a25050565b6000806000838152602001908152602001600020600101549050919050565b6104438261041b565b61044c81610915565b6104568383610929565b505050565b610463610a09565b73ffffffffffffffffffffffffffffffffffffffff168173ffffffffffffffffffffffffffffffffffffffff16146104d0576040517f08c379a00000000000000000000000000000000000000000000000000000000081526004016104c7906112d0565b60405180910390fd5b6104da8282610a11565b5050565b600061050a7ffcc2475dd4c7105badaeda1c2b2d4b214c460b3a13fbc17d7998c4a3be0069668361064e565b610549576040517f08c379a000000000000000000000000000000000000000000000000000000000815260040161054090611250565b60405180910390fd5b600160008373ffffffffffffffffffffffffffffffffffffffff1673ffffffffffffffffffffffffffffffffffffffff168152602001908152602001600020549050919050565b6105ba7fb8ca5430e403d88aa14f3587e1aa5a2121b1acebf2201dde30800337ea6af0758361043a565b80600260008473ffffffffffffffffffffffffffffffffffffffff1673ffffffffffffffffffffffffffffffffffffffff168152602001908152602001600020819055508173ffffffffffffffffffffffffffffffffffffffff167fa56e21173460286ea98fc3defc7671b9b8e2ff0c6acea8d6ed30b343724e23fa60405161064290611230565b60405180910390a25050565b600080600084815260200190815260200160002060000160008373ffffffffffffffffffffffffffffffffffffffff1673ffffffffffffffffffffffffffffffffffffffff16815260200190815260200160002060009054906101000a900460ff16905092915050565b6000801b81565b7fb8ca5430e403d88aa14f3587e1aa5a2121b1acebf2201dde30800337ea6af07581565b60006107167ffcc2475dd4c7105badaeda1c2b2d4b214c460b3a13fbc17d7998c4a3be006966610711610a09565b61064e565b806107535750610724610a09565b73ffffffffffffffffffffffffffffffffffffffff168273ffffffffffffffffffffffffffffffffffffffff16145b610792576040517f08c379a000000000000000000000000000000000000000000000000000000000815260040161078990611270565b60405180910390fd5b6107bc7fb8ca5430e403d88aa14f3587e1aa5a2121b1acebf2201dde30800337ea6af0758361064e565b6107fb576040517f08c379a00000000000000000000000000000000000000000000000000000000081526004016107f2906112b0565b60405180910390fd5b600260008373ffffffffffffffffffffffffffffffffffffffff1673ffffffffffffffffffffffffffffffffffffffff168152602001908152602001600020549050919050565b7f2172861495e7b85edac73e3cd5fbb42dd675baadf627720e687bcfdaca02509681565b61086f8261041b565b61087881610915565b6108828383610a11565b505050565b7ffcc2475dd4c7105badaeda1c2b2d4b214c460b3a13fbc17d7998c4a3be00696681565b60007f01ffc9a7000000000000000000000000000000000000000000000000000000007bffffffffffffffffffffffffffffffffffffffffffffffffffffffff1916827bffffffffffffffffffffffffffffffffffffffffffffffffffffffff1916149050919050565b61092681610921610a09565b610af2565b50565b610933828261064e565b610a0557600160008084815260200190815260200160002060000160008373ffffffffffffffffffffffffffffffffffffffff1673ffffffffffffffffffffffffffffffffffffffff16815260200190815260200160002060006101000a81548160ff0219169083151502179055506109aa610a09565b73ffffffffffffffffffffffffffffffffffffffff168173ffffffffffffffffffffffffffffffffffffffff16837f2f8788117e7eff1d82e926ec794901d17c78024a50270940304540a733656f0d60405160405180910390a45b5050565b600033905090565b610a1b828261064e565b15610aee57600080600084815260200190815260200160002060000160008373ffffffffffffffffffffffffffffffffffffffff1673ffffffffffffffffffffffffffffffffffffffff16815260200190815260200160002060006101000a81548160ff021916908315150217905550610a93610a09565b73ffffffffffffffffffffffffffffffffffffffff168173ffffffffffffffffffffffffffffffffffffffff16837ff6391f5c32d9c69d2a47ea670b442974b53935d1edc7fd64eb21e047a839171b60405160405180910390a45b5050565b610afc828261064e565b610b8b57610b218173ffffffffffffffffffffffffffffffffffffffff166014610b8f565b610b2f8360001c6020610b8f565b604051602001610b4092919061117e565b6040516020818303038152906040526040517f08c379a0000000000000000000000000000000000000000000000000000000008152600401610b8291906111ee565b60405180910390fd5b5050565b606060006002836002610ba2919061136d565b610bac9190611317565b67ffffffffffffffff811115610beb577f4e487b7100000000000000000000000000000000000000000000000000000000600052604160045260246000fd5b6040519080825280601f01601f191660200182016040528015610c1d5781602001600182028036833780820191505090505b5090507f300000000000000000000000000000000000000000000000000000000000000081600081518110610c7b577f4e487b7100000000000000000000000000000000000000000000000000000000600052603260045260246000fd5b60200101907effffffffffffffffffffffffffffffffffffffffffffffffffffffffffffff1916908160001a9053507f780000000000000000000000000000000000000000000000000000000000000081600181518110610d05577f4e487b7100000000000000000000000000000000000000000000000000000000600052603260045260246000fd5b60200101907effffffffffffffffffffffffffffffffffffffffffffffffffffffffffffff1916908160001a90535060006001846002610d45919061136d565b610d4f9190611317565b90505b6001811115610e3b577f3031323334353637383961626364656600000000000000000000000000000000600f861660108110610db7577f4e487b7100000000000000000000000000000000000000000000000000000000600052603260045260246000fd5b1a60f81b828281518110610df4577f4e487b7100000000000000000000000000000000000000000000000000000000600052603260045260246000fd5b60200101907effffffffffffffffffffffffffffffffffffffffffffffffffffffffffffff1916908160001a905350600485901c945080610e3490611478565b9050610d52565b5060008414610e7f576040517f08c379a0000000000000000000000000000000000000000000000000000000008152600401610e7690611210565b60405180910390fd5b8091505092915050565b600081359050610e98816116eb565b92915050565b600081359050610ead81611702565b92915050565b600081359050610ec281611719565b92915050565b600060208284031215610eda57600080fd5b6000610ee884828501610e89565b91505092915050565b60008060408385031215610f0457600080fd5b6000610f1285828601610e89565b9250506020610f2385828601610e9e565b9150509250929050565b600060208284031215610f3f57600080fd5b6000610f4d84828501610e9e565b91505092915050565b60008060408385031215610f6957600080fd5b6000610f7785828601610e9e565b9250506020610f8885828601610e89565b9150509250929050565b600060208284031215610fa457600080fd5b6000610fb284828501610eb3565b91505092915050565b610fc4816113d9565b82525050565b610fd3816113e5565b82525050565b6000610fe4826112f0565b610fee81856112fb565b9350610ffe818560208601611445565b611007816114d1565b840191505092915050565b600061101d826112f0565b611027818561130c565b9350611037818560208601611445565b80840191505092915050565b60006110506020836112fb565b915061105b826114e2565b602082019050919050565b6000611073600a836112fb565b915061107e8261150b565b602082019050919050565b60006110966025836112fb565b91506110a182611534565b604082019050919050565b60006110b96022836112fb565b91506110c482611583565b604082019050919050565b60006110dc600c836112fb565b91506110e7826115d2565b602082019050919050565b60006110ff60178361130c565b915061110a826115fb565b601782019050919050565b60006111226021836112fb565b915061112d82611624565b604082019050919050565b600061114560118361130c565b915061115082611673565b601182019050919050565b6000611168602f836112fb565b91506111738261169c565b604082019050919050565b6000611189826110f2565b91506111958285611012565b91506111a082611138565b91506111ac8284611012565b91508190509392505050565b60006020820190506111cd6000830184610fbb565b92915050565b60006020820190506111e86000830184610fca565b92915050565b600060208201905081810360008301526112088184610fd9565b905092915050565b6000602082019050818103600083015261122981611043565b9050919050565b6000602082019050818103600083015261124981611066565b9050919050565b6000602082019050818103600083015261126981611089565b9050919050565b60006020820190508181036000830152611289816110ac565b9050919050565b600060208201905081810360008301526112a9816110cf565b9050919050565b600060208201905081810360008301526112c981611115565b9050919050565b600060208201905081810360008301526112e98161115b565b9050919050565b600081519050919050565b600082825260208201905092915050565b600081905092915050565b60006113228261143b565b915061132d8361143b565b9250827fffffffffffffffffffffffffffffffffffffffffffffffffffffffffffffffff03821115611362576113616114a2565b5b828201905092915050565b60006113788261143b565b91506113838361143b565b9250817fffffffffffffffffffffffffffffffffffffffffffffffffffffffffffffffff04831182151516156113bc576113bb6114a2565b5b828202905092915050565b60006113d28261141b565b9050919050565b60008115159050919050565b6000819050919050565b60007fffffffff0000000000000000000000000000000000000000000000000000000082169050919050565b600073ffffffffffffffffffffffffffffffffffffffff82169050919050565b6000819050919050565b60005b83811015611463578082015181840152602081019050611448565b83811115611472576000848401525b50505050565b60006114838261143b565b91506000821415611497576114966114a2565b5b600182039050919050565b7f4e487b7100000000000000000000000000000000000000000000000000000000600052601160045260246000fd5b6000601f19601f8301169050919050565b7f537472696e67733a20686578206c656e67746820696e73756666696369656e74600082015250565b7f5573657220616464656400000000000000000000000000000000000000000000600082015250565b7f4865616c7468436f6e74726f6c3a20446f63746f72206973206e6f742072656760008201527f6973746572000000000000000000000000000000000000000000000000000000602082015250565b7f4865616c7468436f6e74726f6c3a2055736572206973206e6f7420616c6c6f7760008201527f6564000000000000000000000000000000000000000000000000000000000000602082015250565b7f446f63746f722061646465640000000000000000000000000000000000000000600082015250565b7f416363657373436f6e74726f6c3a206163636f756e7420000000000000000000600082015250565b7f4865616c746853746f72653a2055736572206973206e6f74207265676973746560008201527f7200000000000000000000000000000000000000000000000000000000000000602082015250565b7f206973206d697373696e6720726f6c6520000000000000000000000000000000600082015250565b7f416363657373436f6e74726f6c3a2063616e206f6e6c792072656e6f756e636560008201527f20726f6c657320666f722073656c660000000000000000000000000000000000602082015250565b6116f4816113c7565b81146116ff57600080fd5b50565b61170b816113e5565b811461171657600080fd5b50565b611722816113ef565b811461172d57600080fd5b5056fea2646970667358221220fe637294a283edfa308ef5a60ef474920dfb9f59f874d143005bd2100da871a264736f6c63430008040033",
  "linkReferences": {},
  "deployedLinkReferences": {}
}