{
  "_format": "hh-sol-artifact-1",
  "contractName": "HealthStore",
  "sourceName": "contracts/HealthStore.sol",
  "abi": [
    {
      "inputs": [
        {
          "internalType": "contract HealthControl",
          "name": "_control_address",
          "type": "address"
        },
        {
          "internalType": "address",
          "name": "_admin",
          "type": "address"
        }
      ],
      "stateMutability": "nonpayable",
      "type": "constructor"
    },
    {
      "anonymous": false,
      "inputs": [
        {
          "indexed": true,
          "internalType": "address",
          "name": "user",
          "type": "address"
        },
        {
          "indexed": true,
          "internalType": "address",
          "name": "doctor",
          "type": "address"
        },
        {
          "indexed": false,
          "internalType": "bool",
          "name": "status",
          "type": "bool"
        }
      ],
      "name": "UserApprove",
      "type": "event"
    },
    {
      "anonymous": false,
      "inputs": [
        {
          "indexed": true,
          "internalType": "address",
          "name": "user",
          "type": "address"
        },
        {
          "indexed": false,
          "internalType": "bool",
          "name": "status",
          "type": "bool"
        }
      ],
      "name": "UserDisabled",
      "type": "event"
    },
    {
      "inputs": [],
      "name": "ROLE_ADMIN",
      "outputs": [
        {
          "internalType": "bytes32",
          "name": "",
          "type": "bytes32"
        }
      ],
      "stateMutability": "view",
      "type": "function"
    },
    {
      "inputs": [],
      "name": "ROLE_DOCTOR",
      "outputs": [
        {
          "internalType": "bytes32",
          "name": "",
          "type": "bytes32"
        }
      ],
      "stateMutability": "view",
      "type": "function"
    },
    {
      "inputs": [],
      "name": "ROLE_USER",
      "outputs": [
        {
          "internalType": "bytes32",
          "name": "",
          "type": "bytes32"
        }
      ],
      "stateMutability": "view",
      "type": "function"
    },
    {
      "inputs": [
        {
          "internalType": "address",
          "name": "_user",
          "type": "address"
        },
        {
          "internalType": "bytes32",
          "name": "_userCidData",
          "type": "bytes32"
        }
      ],
      "name": "addHistorial",
      "outputs": [],
      "stateMutability": "nonpayable",
      "type": "function"
    },
    {
      "inputs": [
        {
          "internalType": "address",
          "name": "_user",
          "type": "address"
        },
        {
          "internalType": "address",
          "name": "doctor",
          "type": "address"
        }
      ],
      "name": "allowance",
      "outputs": [
        {
          "internalType": "bool",
          "name": "",
          "type": "bool"
        }
      ],
      "stateMutability": "view",
      "type": "function"
    },
    {
      "inputs": [
        {
          "internalType": "address",
          "name": "doctor",
          "type": "address"
        }
      ],
      "name": "approveUser",
      "outputs": [
        {
          "internalType": "bool",
          "name": "",
          "type": "bool"
        }
      ],
      "stateMutability": "nonpayable",
      "type": "function"
    },
    {
      "inputs": [
        {
          "internalType": "address",
          "name": "_user",
          "type": "address"
        }
      ],
      "name": "disableUser",
      "outputs": [],
      "stateMutability": "nonpayable",
      "type": "function"
    },
    {
      "inputs": [
        {
          "internalType": "address",
          "name": "_user",
          "type": "address"
        }
      ],
      "name": "viewHistorial",
      "outputs": [
        {
          "internalType": "bytes32",
          "name": "",
          "type": "bytes32"
        }
      ],
      "stateMutability": "view",
      "type": "function"
    }
  ],
  "bytecode": "0x60806040523480156200001157600080fd5b506040516200126c3803806200126c8339818101604052810190620000379190620000ee565b806000806101000a81548173ffffffffffffffffffffffffffffffffffffffff021916908373ffffffffffffffffffffffffffffffffffffffff16021790555081600160006101000a81548173ffffffffffffffffffffffffffffffffffffffff021916908373ffffffffffffffffffffffffffffffffffffffff1602179055505050620001ab565b600081519050620000d18162000177565b92915050565b600081519050620000e88162000191565b92915050565b600080604083850312156200010257600080fd5b60006200011285828601620000d7565b92505060206200012585828601620000c0565b9150509250929050565b60006200013c8262000157565b9050919050565b600062000150826200012f565b9050919050565b600073ffffffffffffffffffffffffffffffffffffffff82169050919050565b62000182816200012f565b81146200018e57600080fd5b50565b6200019c8162000143565b8114620001a857600080fd5b50565b6110b180620001bb6000396000f3fe608060405234801561001057600080fd5b50600436106100885760003560e01c8063d624fdb61161005b578063d624fdb614610115578063dd62ed3e14610145578063ee6649a114610175578063ffcb79721461019157610088565b806323688b281461008d5780633c20d5fa146100a9578063b941719e146100d9578063d391014b146100f7575b600080fd5b6100a760048036038101906100a29190610cca565b6101af565b005b6100c360048036038101906100be9190610c65565b610469565b6040516100d09190610e03565b60405180910390f35b6100e161083c565b6040516100ee9190610e03565b60405180910390f35b6100ff610860565b60405161010c9190610e03565b60405180910390f35b61012f600480360381019061012a9190610c65565b610884565b60405161013c9190610de8565b60405180910390f35b61015f600480360381019061015a9190610c8e565b6108a7565b60405161016c9190610de8565b60405180910390f35b61018f600480360381019061018a9190610c65565b61093b565b005b610199610afc565b6040516101a69190610e03565b60405180910390f35b600160009054906101000a900473ffffffffffffffffffffffffffffffffffffffff1673ffffffffffffffffffffffffffffffffffffffff166391d148547ffcc2475dd4c7105badaeda1c2b2d4b214c460b3a13fbc17d7998c4a3be006966610216610b20565b6040518363ffffffff1660e01b8152600401610233929190610e1e565b60206040518083038186803b15801561024b57600080fd5b505afa15801561025f573d6000803e3d6000fd5b505050506040513d601f19601f820116820180604052508101906102839190610d06565b6102c2576040517f08c379a00000000000000000000000000000000000000000000000000000000081526004016102b990610e87565b60405180910390fd5b600160009054906101000a900473ffffffffffffffffffffffffffffffffffffffff1673ffffffffffffffffffffffffffffffffffffffff166391d148547fb8ca5430e403d88aa14f3587e1aa5a2121b1acebf2201dde30800337ea6af075846040518363ffffffff1660e01b815260040161033f929190610e1e565b60206040518083038186803b15801561035757600080fd5b505afa15801561036b573d6000803e3d6000fd5b505050506040513d601f19601f8201168201806040525081019061038f9190610d06565b6103ce576040517f08c379a00000000000000000000000000000000000000000000000000000000081526004016103c590610ea7565b60405180910390fd5b6103df826103da610b20565b6108a7565b61041e576040517f08c379a000000000000000000000000000000000000000000000000000000000815260040161041590610e67565b60405180910390fd5b80600360008473ffffffffffffffffffffffffffffffffffffffff1673ffffffffffffffffffffffffffffffffffffffff168152602001908152602001600020600101819055505050565b6000600160009054906101000a900473ffffffffffffffffffffffffffffffffffffffff1673ffffffffffffffffffffffffffffffffffffffff166391d148547ffcc2475dd4c7105badaeda1c2b2d4b214c460b3a13fbc17d7998c4a3be0069666104d2610b20565b6040518363ffffffff1660e01b81526004016104ef929190610e1e565b60206040518083038186803b15801561050757600080fd5b505afa15801561051b573d6000803e3d6000fd5b505050506040513d601f19601f8201168201806040525081019061053f9190610d06565b8061061a5750600160009054906101000a900473ffffffffffffffffffffffffffffffffffffffff1673ffffffffffffffffffffffffffffffffffffffff166391d148547fb8ca5430e403d88aa14f3587e1aa5a2121b1acebf2201dde30800337ea6af0756105ac610b20565b6040518363ffffffff1660e01b81526004016105c9929190610e1e565b60206040518083038186803b1580156105e157600080fd5b505afa1580156105f5573d6000803e3d6000fd5b505050506040513d601f19601f820116820180604052508101906106199190610d06565b5b610659576040517f08c379a000000000000000000000000000000000000000000000000000000000815260040161065090610e87565b60405180910390fd5b600160009054906101000a900473ffffffffffffffffffffffffffffffffffffffff1673ffffffffffffffffffffffffffffffffffffffff166391d148547fb8ca5430e403d88aa14f3587e1aa5a2121b1acebf2201dde30800337ea6af075846040518363ffffffff1660e01b81526004016106d6929190610e1e565b60206040518083038186803b1580156106ee57600080fd5b505afa158015610702573d6000803e3d6000fd5b505050506040513d601f19601f820116820180604052508101906107269190610d06565b610765576040517f08c379a000000000000000000000000000000000000000000000000000000000815260040161075c90610ea7565b60405180910390fd5b61077682610771610b20565b6108a7565b806107b35750610784610b20565b73ffffffffffffffffffffffffffffffffffffffff168273ffffffffffffffffffffffffffffffffffffffff16145b6107f2576040517f08c379a00000000000000000000000000000000000000000000000000000000081526004016107e990610e67565b60405180910390fd5b600360008373ffffffffffffffffffffffffffffffffffffffff1673ffffffffffffffffffffffffffffffffffffffff168152602001908152602001600020600101549050919050565b7fb8ca5430e403d88aa14f3587e1aa5a2121b1acebf2201dde30800337ea6af07581565b7f2172861495e7b85edac73e3cd5fbb42dd675baadf627720e687bcfdaca02509681565b60008061088f610b20565b905061089d81846001610b28565b6001915050919050565b6000600260008473ffffffffffffffffffffffffffffffffffffffff1673ffffffffffffffffffffffffffffffffffffffff16815260200190815260200160002060008373ffffffffffffffffffffffffffffffffffffffff1673ffffffffffffffffffffffffffffffffffffffff16815260200190815260200160002060009054906101000a900460ff16905092915050565b600160009054906101000a900473ffffffffffffffffffffffffffffffffffffffff1673ffffffffffffffffffffffffffffffffffffffff166391d148547f2172861495e7b85edac73e3cd5fbb42dd675baadf627720e687bcfdaca0250966109a2610b20565b6040518363ffffffff1660e01b81526004016109bf929190610e1e565b60206040518083038186803b1580156109d757600080fd5b505afa1580156109eb573d6000803e3d6000fd5b505050506040513d601f19601f82011682018060405250810190610a0f9190610d06565b15610a4f576040517f08c379a0000000000000000000000000000000000000000000000000000000008152600401610a4690610e47565b60405180910390fd5b6000600360008373ffffffffffffffffffffffffffffffffffffffff1673ffffffffffffffffffffffffffffffffffffffff16815260200190815260200160002060000160146101000a81548160ff0219169083151502179055508073ffffffffffffffffffffffffffffffffffffffff167fbc8fc9d963e5a6f519905f9cd4311baa0bd8b7e8c5adb9c2d086d988b19bfe466000604051610af19190610de8565b60405180910390a250565b7ffcc2475dd4c7105badaeda1c2b2d4b214c460b3a13fbc17d7998c4a3be00696681565b600033905090565b80600260008573ffffffffffffffffffffffffffffffffffffffff1673ffffffffffffffffffffffffffffffffffffffff16815260200190815260200160002060008473ffffffffffffffffffffffffffffffffffffffff1673ffffffffffffffffffffffffffffffffffffffff16815260200190815260200160002060006101000a81548160ff0219169083151502179055508173ffffffffffffffffffffffffffffffffffffffff168373ffffffffffffffffffffffffffffffffffffffff167ffcf76e8d2781f87c844fe5e18a9c8010cc13f2950368282be09a264299d3ba8e83604051610c199190610de8565b60405180910390a3505050565b600081359050610c3581611036565b92915050565b600081519050610c4a8161104d565b92915050565b600081359050610c5f81611064565b92915050565b600060208284031215610c7757600080fd5b6000610c8584828501610c26565b91505092915050565b60008060408385031215610ca157600080fd5b6000610caf85828601610c26565b9250506020610cc085828601610c26565b9150509250929050565b60008060408385031215610cdd57600080fd5b6000610ceb85828601610c26565b9250506020610cfc85828601610c50565b9150509250929050565b600060208284031215610d1857600080fd5b6000610d2684828501610c3b565b91505092915050565b610d3881610ed8565b82525050565b610d4781610eea565b82525050565b610d5681610ef6565b82525050565b6000610d69601e83610ec7565b9150610d7482610f20565b602082019050919050565b6000610d8c602483610ec7565b9150610d9782610f49565b604082019050919050565b6000610daf602183610ec7565b9150610dba82610f98565b604082019050919050565b6000610dd2602183610ec7565b9150610ddd82610fe7565b604082019050919050565b6000602082019050610dfd6000830184610d3e565b92915050565b6000602082019050610e186000830184610d4d565b92915050565b6000604082019050610e336000830185610d4d565b610e406020830184610d2f565b9392505050565b60006020820190508181036000830152610e6081610d5c565b9050919050565b60006020820190508181036000830152610e8081610d7f565b9050919050565b60006020820190508181036000830152610ea081610da2565b9050919050565b60006020820190508181036000830152610ec081610dc5565b9050919050565b600082825260208201905092915050565b6000610ee382610f00565b9050919050565b60008115159050919050565b6000819050919050565b600073ffffffffffffffffffffffffffffffffffffffff82169050919050565b7f4865616c746853746f72653a2055736572206973206e6f742061646d696e0000600082015250565b7f4865616c746853746f72653a20446f63746f7220646f6573206e6f7420616c6c60008201527f6f77656400000000000000000000000000000000000000000000000000000000602082015250565b7f4865616c746853746f72653a2055736572206973206e6f74206120646f63746f60008201527f7200000000000000000000000000000000000000000000000000000000000000602082015250565b7f4865616c746853746f72653a2055736572206973206e6f74207265676973746560008201527f7200000000000000000000000000000000000000000000000000000000000000602082015250565b61103f81610ed8565b811461104a57600080fd5b50565b61105681610eea565b811461106157600080fd5b50565b61106d81610ef6565b811461107857600080fd5b5056fea2646970667358221220c2fd288e237fa7e5a88240caa1b7143304cb0ac465d3f38bfbda73d1a3839bc364736f6c63430008040033",
  "linkReferences": {},
  "deployedLinkReferences": {}
}