{
  "_format": "hh-sol-artifact-1",
  "contractName": "HealthControl",
  "sourceName": "contracts/HealthControl.sol",
  "abi": [
    {
      "inputs": [
        {
          "internalType": "address",
          "name": "admin",
          "type": "address"
        }
      ],
      "stateMutability": "nonpayable",
      "type": "constructor"
    },
    {
      "anonymous": false,
      "inputs": [
        {
          "indexed": true,
          "internalType": "address",
          "name": "doctor",
          "type": "address"
        },
        {
          "indexed": false,
          "internalType": "string",
          "name": "message",
          "type": "string"
        }
      ],
      "name": "DoctorAdded",
      "type": "event"
    },
    {
      "anonymous": false,
      "inputs": [
        {
          "indexed": true,
          "internalType": "bytes32",
          "name": "role",
          "type": "bytes32"
        },
        {
          "indexed": true,
          "internalType": "bytes32",
          "name": "previousAdminRole",
          "type": "bytes32"
        },
        {
          "indexed": true,
          "internalType": "bytes32",
          "name": "newAdminRole",
          "type": "bytes32"
        }
      ],
      "name": "RoleAdminChanged",
      "type": "event"
    },
    {
      "anonymous": false,
      "inputs": [
        {
          "indexed": true,
          "internalType": "bytes32",
          "name": "role",
          "type": "bytes32"
        },
        {
          "indexed": true,
          "internalType": "address",
          "name": "account",
          "type": "address"
        },
        {
          "indexed": true,
          "internalType": "address",
          "name": "sender",
          "type": "address"
        }
      ],
      "name": "RoleGranted",
      "type": "event"
    },
    {
      "anonymous": false,
      "inputs": [
        {
          "indexed": true,
          "internalType": "bytes32",
          "name": "role",
          "type": "bytes32"
        },
        {
          "indexed": true,
          "internalType": "address",
          "name": "account",
          "type": "address"
        },
        {
          "indexed": true,
          "internalType": "address",
          "name": "sender",
          "type": "address"
        }
      ],
      "name": "RoleRevoked",
      "type": "event"
    },
    {
      "anonymous": false,
      "inputs": [
        {
          "indexed": true,
          "internalType": "address",
          "name": "user",
          "type": "address"
        },
        {
          "indexed": false,
          "internalType": "string",
          "name": "message",
          "type": "string"
        }
      ],
      "name": "UserAdded",
      "type": "event"
    },
    {
      "inputs": [],
      "name": "DEFAULT_ADMIN_ROLE",
      "outputs": [
        {
          "internalType": "bytes32",
          "name": "",
          "type": "bytes32"
        }
      ],
      "stateMutability": "view",
      "type": "function"
    },
    {
      "inputs": [],
      "name": "ROLE_ADMIN",
      "outputs": [
        {
          "internalType": "bytes32",
          "name": "",
          "type": "bytes32"
        }
      ],
      "stateMutability": "view",
      "type": "function"
    },
    {
      "inputs": [],
      "name": "ROLE_DOCTOR",
      "outputs": [
        {
          "internalType": "bytes32",
          "name": "",
          "type": "bytes32"
        }
      ],
      "stateMutability": "view",
      "type": "function"
    },
    {
      "inputs": [],
      "name": "ROLE_USER",
      "outputs": [
        {
          "internalType": "bytes32",
          "name": "",
          "type": "bytes32"
        }
      ],
      "stateMutability": "view",
      "type": "function"
    },
    {
      "inputs": [
        {
          "internalType": "address",
          "name": "_newDoctor",
          "type": "address"
        },
        {
          "internalType": "string",
          "name": "_doctorCidProfile",
          "type": "string"
        }
      ],
      "name": "addDoctor",
      "outputs": [],
      "stateMutability": "nonpayable",
      "type": "function"
    },
    {
      "inputs": [
        {
          "internalType": "address",
          "name": "_newUser",
          "type": "address"
        },
        {
          "internalType": "string",
          "name": "_userCidProfile",
          "type": "string"
        }
      ],
      "name": "addUser",
      "outputs": [],
      "stateMutability": "nonpayable",
      "type": "function"
    },
    {
      "inputs": [
        {
          "internalType": "bytes32",
          "name": "role",
          "type": "bytes32"
        }
      ],
      "name": "getRoleAdmin",
      "outputs": [
        {
          "internalType": "bytes32",
          "name": "",
          "type": "bytes32"
        }
      ],
      "stateMutability": "view",
      "type": "function"
    },
    {
      "inputs": [
        {
          "internalType": "bytes32",
          "name": "role",
          "type": "bytes32"
        },
        {
          "internalType": "address",
          "name": "account",
          "type": "address"
        }
      ],
      "name": "grantRole",
      "outputs": [],
      "stateMutability": "nonpayable",
      "type": "function"
    },
    {
      "inputs": [
        {
          "internalType": "bytes32",
          "name": "role",
          "type": "bytes32"
        },
        {
          "internalType": "address",
          "name": "account",
          "type": "address"
        }
      ],
      "name": "hasRole",
      "outputs": [
        {
          "internalType": "bool",
          "name": "",
          "type": "bool"
        }
      ],
      "stateMutability": "view",
      "type": "function"
    },
    {
      "inputs": [
        {
          "internalType": "bytes32",
          "name": "role",
          "type": "bytes32"
        },
        {
          "internalType": "address",
          "name": "account",
          "type": "address"
        }
      ],
      "name": "renounceRole",
      "outputs": [],
      "stateMutability": "nonpayable",
      "type": "function"
    },
    {
      "inputs": [
        {
          "internalType": "bytes32",
          "name": "role",
          "type": "bytes32"
        },
        {
          "internalType": "address",
          "name": "account",
          "type": "address"
        }
      ],
      "name": "revokeRole",
      "outputs": [],
      "stateMutability": "nonpayable",
      "type": "function"
    },
    {
      "inputs": [
        {
          "internalType": "bytes4",
          "name": "interfaceId",
          "type": "bytes4"
        }
      ],
      "name": "supportsInterface",
      "outputs": [
        {
          "internalType": "bool",
          "name": "",
          "type": "bool"
        }
      ],
      "stateMutability": "view",
      "type": "function"
    }
  ],
  "bytecode": "0x60806040523480156200001157600080fd5b50604051620018f9380380620018f9833981810160405281019062000037919062000326565b620000697f2172861495e7b85edac73e3cd5fbb42dd675baadf627720e687bcfdaca025096826200011460201b60201c565b620000bb7ffcc2475dd4c7105badaeda1c2b2d4b214c460b3a13fbc17d7998c4a3be0069667f2172861495e7b85edac73e3cd5fbb42dd675baadf627720e687bcfdaca0250966200012a60201b60201c565b6200010d7fb8ca5430e403d88aa14f3587e1aa5a2121b1acebf2201dde30800337ea6af0757f2172861495e7b85edac73e3cd5fbb42dd675baadf627720e687bcfdaca0250966200012a60201b60201c565b50620003a0565b6200012682826200018d60201b60201c565b5050565b60006200013d836200027e60201b60201c565b905081600080858152602001908152602001600020600101819055508181847fbd79b86ffe0ab8e8776151514217cd7cacd52c909f66475c3af44e129f0b00ff60405160405180910390a4505050565b6200019f82826200029d60201b60201c565b6200027a57600160008084815260200190815260200160002060000160008373ffffffffffffffffffffffffffffffffffffffff1673ffffffffffffffffffffffffffffffffffffffff16815260200190815260200160002060006101000a81548160ff0219169083151502179055506200021f6200030760201b60201c565b73ffffffffffffffffffffffffffffffffffffffff168173ffffffffffffffffffffffffffffffffffffffff16837f2f8788117e7eff1d82e926ec794901d17c78024a50270940304540a733656f0d60405160405180910390a45b5050565b6000806000838152602001908152602001600020600101549050919050565b600080600084815260200190815260200160002060000160008373ffffffffffffffffffffffffffffffffffffffff1673ffffffffffffffffffffffffffffffffffffffff16815260200190815260200160002060009054906101000a900460ff16905092915050565b600033905090565b600081519050620003208162000386565b92915050565b6000602082840312156200033957600080fd5b600062000349848285016200030f565b91505092915050565b60006200035f8262000366565b9050919050565b600073ffffffffffffffffffffffffffffffffffffffff82169050919050565b620003918162000352565b81146200039d57600080fd5b50565b61154980620003b06000396000f3fe608060405234801561001057600080fd5b50600436106100b45760003560e01c806391d148541161007157806391d1485414610189578063a217fddf146101b9578063b941719e146101d7578063d391014b146101f5578063d547741f14610213578063ffcb79721461022f576100b4565b806301ffc9a7146100b9578063248a9ca3146100e95780632f2ff15d1461011957806336568abe146101355780634b68d431146101515780637cf1e4451461016d575b600080fd5b6100d360048036038101906100ce9190610e05565b61024d565b6040516100e09190610fc2565b60405180910390f35b61010360048036038101906100fe9190610da0565b6102c7565b6040516101109190610fdd565b60405180910390f35b610133600480360381019061012e9190610dc9565b6102e6565b005b61014f600480360381019061014a9190610dc9565b610307565b005b61016b60048036038101906101669190610d4c565b61038a565b005b61018760048036038101906101829190610d4c565b610458565b005b6101a3600480360381019061019e9190610dc9565b610526565b6040516101b09190610fc2565b60405180910390f35b6101c1610590565b6040516101ce9190610fdd565b60405180910390f35b6101df610597565b6040516101ec9190610fdd565b60405180910390f35b6101fd6105bb565b60405161020a9190610fdd565b60405180910390f35b61022d60048036038101906102289190610dc9565b6105df565b005b610237610600565b6040516102449190610fdd565b60405180910390f35b60007f7965db0b000000000000000000000000000000000000000000000000000000007bffffffffffffffffffffffffffffffffffffffffffffffffffffffff1916827bffffffffffffffffffffffffffffffffffffffffffffffffffffffff191614806102c057506102bf82610624565b5b9050919050565b6000806000838152602001908152602001600020600101549050919050565b6102ef826102c7565b6102f88161068e565b61030283836106a2565b505050565b61030f610782565b73ffffffffffffffffffffffffffffffffffffffff168173ffffffffffffffffffffffffffffffffffffffff161461037c576040517f08c379a00000000000000000000000000000000000000000000000000000000081526004016103739061107a565b60405180910390fd5b610386828261078a565b5050565b6103b47fb8ca5430e403d88aa14f3587e1aa5a2121b1acebf2201dde30800337ea6af075836102e6565b80600260008473ffffffffffffffffffffffffffffffffffffffff1673ffffffffffffffffffffffffffffffffffffffff1681526020019081526020016000209080519060200190610407929190610c02565b508173ffffffffffffffffffffffffffffffffffffffff167fa56e21173460286ea98fc3defc7671b9b8e2ff0c6acea8d6ed30b343724e23fa60405161044c9061103a565b60405180910390a25050565b6104827ffcc2475dd4c7105badaeda1c2b2d4b214c460b3a13fbc17d7998c4a3be006966836102e6565b80600160008473ffffffffffffffffffffffffffffffffffffffff1673ffffffffffffffffffffffffffffffffffffffff16815260200190815260200160002090805190602001906104d5929190610c02565b508173ffffffffffffffffffffffffffffffffffffffff167f0ee331c9cfbbc9903648d754b8c881413fa4e0b00b6de7074f9bb7ec3aad42ef60405161051a9061105a565b60405180910390a25050565b600080600084815260200190815260200160002060000160008373ffffffffffffffffffffffffffffffffffffffff1673ffffffffffffffffffffffffffffffffffffffff16815260200190815260200160002060009054906101000a900460ff16905092915050565b6000801b81565b7fb8ca5430e403d88aa14f3587e1aa5a2121b1acebf2201dde30800337ea6af07581565b7f2172861495e7b85edac73e3cd5fbb42dd675baadf627720e687bcfdaca02509681565b6105e8826102c7565b6105f18161068e565b6105fb838361078a565b505050565b7ffcc2475dd4c7105badaeda1c2b2d4b214c460b3a13fbc17d7998c4a3be00696681565b60007f01ffc9a7000000000000000000000000000000000000000000000000000000007bffffffffffffffffffffffffffffffffffffffffffffffffffffffff1916827bffffffffffffffffffffffffffffffffffffffffffffffffffffffff1916149050919050565b61069f8161069a610782565b61086b565b50565b6106ac8282610526565b61077e57600160008084815260200190815260200160002060000160008373ffffffffffffffffffffffffffffffffffffffff1673ffffffffffffffffffffffffffffffffffffffff16815260200190815260200160002060006101000a81548160ff021916908315150217905550610723610782565b73ffffffffffffffffffffffffffffffffffffffff168173ffffffffffffffffffffffffffffffffffffffff16837f2f8788117e7eff1d82e926ec794901d17c78024a50270940304540a733656f0d60405160405180910390a45b5050565b600033905090565b6107948282610526565b1561086757600080600084815260200190815260200160002060000160008373ffffffffffffffffffffffffffffffffffffffff1673ffffffffffffffffffffffffffffffffffffffff16815260200190815260200160002060006101000a81548160ff02191690831515021790555061080c610782565b73ffffffffffffffffffffffffffffffffffffffff168173ffffffffffffffffffffffffffffffffffffffff16837ff6391f5c32d9c69d2a47ea670b442974b53935d1edc7fd64eb21e047a839171b60405160405180910390a45b5050565b6108758282610526565b6109045761089a8173ffffffffffffffffffffffffffffffffffffffff166014610908565b6108a88360001c6020610908565b6040516020016108b9929190610f88565b6040516020818303038152906040526040517f08c379a00000000000000000000000000000000000000000000000000000000081526004016108fb9190610ff8565b60405180910390fd5b5050565b60606000600283600261091b919061116d565b6109259190611117565b67ffffffffffffffff811115610964577f4e487b7100000000000000000000000000000000000000000000000000000000600052604160045260246000fd5b6040519080825280601f01601f1916602001820160405280156109965781602001600182028036833780820191505090505b5090507f3000000000000000000000000000000000000000000000000000000000000000816000815181106109f4577f4e487b7100000000000000000000000000000000000000000000000000000000600052603260045260246000fd5b60200101907effffffffffffffffffffffffffffffffffffffffffffffffffffffffffffff1916908160001a9053507f780000000000000000000000000000000000000000000000000000000000000081600181518110610a7e577f4e487b7100000000000000000000000000000000000000000000000000000000600052603260045260246000fd5b60200101907effffffffffffffffffffffffffffffffffffffffffffffffffffffffffffff1916908160001a90535060006001846002610abe919061116d565b610ac89190611117565b90505b6001811115610bb4577f3031323334353637383961626364656600000000000000000000000000000000600f861660108110610b30577f4e487b7100000000000000000000000000000000000000000000000000000000600052603260045260246000fd5b1a60f81b828281518110610b6d577f4e487b7100000000000000000000000000000000000000000000000000000000600052603260045260246000fd5b60200101907effffffffffffffffffffffffffffffffffffffffffffffffffffffffffffff1916908160001a905350600485901c945080610bad90611287565b9050610acb565b5060008414610bf8576040517f08c379a0000000000000000000000000000000000000000000000000000000008152600401610bef9061101a565b60405180910390fd5b8091505092915050565b828054610c0e906112b1565b90600052602060002090601f016020900481019282610c305760008555610c77565b82601f10610c4957805160ff1916838001178555610c77565b82800160010185558215610c77579182015b82811115610c76578251825591602001919060010190610c5b565b5b509050610c849190610c88565b5090565b5b80821115610ca1576000816000905550600101610c89565b5090565b6000610cb8610cb3846110bf565b61109a565b905082815260208101848484011115610cd057600080fd5b610cdb848285611245565b509392505050565b600081359050610cf2816114ce565b92915050565b600081359050610d07816114e5565b92915050565b600081359050610d1c816114fc565b92915050565b600082601f830112610d3357600080fd5b8135610d43848260208601610ca5565b91505092915050565b60008060408385031215610d5f57600080fd5b6000610d6d85828601610ce3565b925050602083013567ffffffffffffffff811115610d8a57600080fd5b610d9685828601610d22565b9150509250929050565b600060208284031215610db257600080fd5b6000610dc084828501610cf8565b91505092915050565b60008060408385031215610ddc57600080fd5b6000610dea85828601610cf8565b9250506020610dfb85828601610ce3565b9150509250929050565b600060208284031215610e1757600080fd5b6000610e2584828501610d0d565b91505092915050565b610e37816111d9565b82525050565b610e46816111e5565b82525050565b6000610e57826110f0565b610e6181856110fb565b9350610e71818560208601611254565b610e7a816113a1565b840191505092915050565b6000610e90826110f0565b610e9a818561110c565b9350610eaa818560208601611254565b80840191505092915050565b6000610ec36020836110fb565b9150610ece826113b2565b602082019050919050565b6000610ee6600a836110fb565b9150610ef1826113db565b602082019050919050565b6000610f09600c836110fb565b9150610f1482611404565b602082019050919050565b6000610f2c60178361110c565b9150610f378261142d565b601782019050919050565b6000610f4f60118361110c565b9150610f5a82611456565b601182019050919050565b6000610f72602f836110fb565b9150610f7d8261147f565b604082019050919050565b6000610f9382610f1f565b9150610f9f8285610e85565b9150610faa82610f42565b9150610fb68284610e85565b91508190509392505050565b6000602082019050610fd76000830184610e2e565b92915050565b6000602082019050610ff26000830184610e3d565b92915050565b600060208201905081810360008301526110128184610e4c565b905092915050565b6000602082019050818103600083015261103381610eb6565b9050919050565b6000602082019050818103600083015261105381610ed9565b9050919050565b6000602082019050818103600083015261107381610efc565b9050919050565b6000602082019050818103600083015261109381610f65565b9050919050565b60006110a46110b5565b90506110b082826112e3565b919050565b6000604051905090565b600067ffffffffffffffff8211156110da576110d9611372565b5b6110e3826113a1565b9050602081019050919050565b600081519050919050565b600082825260208201905092915050565b600081905092915050565b60006111228261123b565b915061112d8361123b565b9250827fffffffffffffffffffffffffffffffffffffffffffffffffffffffffffffffff0382111561116257611161611314565b5b828201905092915050565b60006111788261123b565b91506111838361123b565b9250817fffffffffffffffffffffffffffffffffffffffffffffffffffffffffffffffff04831182151516156111bc576111bb611314565b5b828202905092915050565b60006111d28261121b565b9050919050565b60008115159050919050565b6000819050919050565b60007fffffffff0000000000000000000000000000000000000000000000000000000082169050919050565b600073ffffffffffffffffffffffffffffffffffffffff82169050919050565b6000819050919050565b82818337600083830152505050565b60005b83811015611272578082015181840152602081019050611257565b83811115611281576000848401525b50505050565b60006112928261123b565b915060008214156112a6576112a5611314565b5b600182039050919050565b600060028204905060018216806112c957607f821691505b602082108114156112dd576112dc611343565b5b50919050565b6112ec826113a1565b810181811067ffffffffffffffff8211171561130b5761130a611372565b5b80604052505050565b7f4e487b7100000000000000000000000000000000000000000000000000000000600052601160045260246000fd5b7f4e487b7100000000000000000000000000000000000000000000000000000000600052602260045260246000fd5b7f4e487b7100000000000000000000000000000000000000000000000000000000600052604160045260246000fd5b6000601f19601f8301169050919050565b7f537472696e67733a20686578206c656e67746820696e73756666696369656e74600082015250565b7f5573657220616464656400000000000000000000000000000000000000000000600082015250565b7f446f63746f722061646465640000000000000000000000000000000000000000600082015250565b7f416363657373436f6e74726f6c3a206163636f756e7420000000000000000000600082015250565b7f206973206d697373696e6720726f6c6520000000000000000000000000000000600082015250565b7f416363657373436f6e74726f6c3a2063616e206f6e6c792072656e6f756e636560008201527f20726f6c657320666f722073656c660000000000000000000000000000000000602082015250565b6114d7816111c7565b81146114e257600080fd5b50565b6114ee816111e5565b81146114f957600080fd5b50565b611505816111ef565b811461151057600080fd5b5056fea2646970667358221220cf59a7a3e3d4f100b2b8cef34cf621c687b5cb5b9200688baaa557ab20dc9e6764736f6c63430008040033",
  "linkReferences": {},
  "deployedLinkReferences": {}
}